:04000000EFEF08F026
:08000800046ED8CF05F0E0CF33
:1000100006F00001E9CF0CF0EACF07F0E1CF08F0DD
:10002000E2CF09F0D9CF0AF0DACF0BF0F3CF12F01C
:10003000F4CF13F0FACF14F000C00EF001C00FF0AF
:1000400002C010F003C011F09DAA2AEF00F09EBA82
:10005000A5EF00F0F0A630EF00F0F0B08AEF00F06E
:100060009DA036EF00F09EB057EF00F00EC000F0FC
:100070000FC001F010C002F011C003F00CC0E9FF86
:1000800007C0EAFF078E08C0E1FF09C0E2FF0AC00F
:10009000D9FF0BC0DAFF12C0F3FF13C0F4FF14C086
:1000A000FAFF045006C0E0FF05C0D8FF10006D0E37
:1000B000CF6E840ECE6E162A182A172A17500908FA
:1000C00002E2176A352A9E9036EF00F0928280B2E3
:1000D000FED7080E006E966B008E0ED0009E0CD0E0
:1000E000D89080B2D8809633008C06D0009C002E29
:1000F000F7D796C001F00CD0130E00BE050E016EAE
:10010000012EFED700D000BEE9D700BCEFD7E8D75C
:100110008EEF00F0416A80B215D0D8D701C041F00F
:100120004350432A036A450FE96E000E0320EA6E2E
:1001300041C0EFFF43501D0801E2436A41503F08B0
:1001400001E13782F09036EF00F0426A9EAA16D0A5
:100150009EAAFED7AECF42F04450442A036A630FF2
:10016000E96E000E0320EA6E42C0EFFF44501D0806
:1001700001E2446A42503F0801E137849E9A36EF1B
:1001800000F0416A757374616E646F2076616C6F04
:100190007220414443204C6F77200A090D00416AC8
:1001A000757374616E646F2076616C6F7220414468
:1001B000432048696768200A090D0000EA6A840E36
:1001C000E96EEF500EE0030E016E006A002EFED7BE
:1001D000012EFBD7E30E006E002EFED70000EF2E9F
:1001E000F2D71200010E846FE9DFF2CF84F0F29EA5
:1001F000A96AA69CA69EA680A85084BFF28E1A6EFD
:10020000F2CF84F0F29E010EA96EA69CA69EA68057
:10021000A85084BFF28E1B6EF2CF84F0F29E020EC5
:10022000A96EA69CA69EA680A85084BFF28E366EAC
:10023000F2CF84F0F29E110EA96EA69CA69EA68017
:10024000A85084BFF28E226EF2CF84F0F29E100E80
:10025000A96EA69CA69EA680A85084BFF28E236E8F
:10026000F2CF84F0F29E130EA96EA69CA69EA680E5
:10027000A85084BFF28E266EF2CF84F0F29E120E4A
:10028000A96EA69CA69EA680A85084BFF28E276E5B
:10029000F2CF84F0F29E150EA96EA69CA69EA680B3
:1002A000A85084BFF28E2A6EF2CF84F0F29E140E14
:1002B000A96EA69CA69EA680A85084BFF28E2B6E27
:1002C000F2CF84F0F29E170EA96EA69CA69EA68081
:1002D000A85084BFF28E2C6EF2CF84F0F29E160EE0
:1002E000A96EA69CA69EA680A85084BFF28E2E6EF4
:1002F000F2CF84F0F29E180EA96EA69CA69EA68050
:10030000A85084BFF28E2D6E23C021F0206A2250A7
:100310002026000E212227C025F0246A26502426FC
:10032000000E25222BC029F0286A2A502826000E0C
:1003300029221200948482A405D0010E326E020E8E
:10034000196E03D0326A0A0E196E1200100E016E79
:10035000C250C30B0110C26E630E006E002EFED79A
:1003600000D0C282C2B2FED7C3CF1CF0C4CF1DF0F2
:100370001DC083F01CC082F082C01FF083C01EF03D
:10038000120086518803F3CF01F0F4CF00F0890307
:10039000F350002687518803F3500020026E5CEF73
:1003A00002F0906B916B010E926FDA6AD96A956BCD
:1003B000880E946FEA6A8C0EE96E95C0E2FF94C0D5
:1003C000E1FF92C093F0D890E550EE02F3509023F5
:1003D000F4509123932FF7D790C0DEFF91C090F097
:1003E000916BD8B0912B942BD8B4952B922B925122
:1003F0000508E0E1E7EF02F0D8B203D0EA6A8C0E1C
:10040000E96E006A016A026A036A8C6B8D6B8E6BFF
:100410008F6B8B518A11891188112CE0200E906FFF
:10042000D89084378537863787378C378D378E3726
:100430008F378B518F5D08E18A518E5D05E18951BF
:100440008D5D02E188518C5D0FE388518C5F89518D
:10045000D8A0893D8D5F8A51D8A08A3D8E5F8B518F
:10046000D8A08B3D8F5FD880003601360236033628
:10047000902FD6D78CC0EFFF8DC0ECFF8EC0ECFF65
:100480008FC0ECFF0BEF03F02B3C01D072D0233C6C
:1004900001D06FD02E3C01D06CD0273C6AD02050C8
:1004A000285C846F21502958856F876F84C086F03F
:1004B000896B2EC088F065D702C083F001C082F03E
:1004C00083C025F082C024F082C026F083C027F0CC
:1004D000F250006EF29E120EA96E27C0A8FFA69CD5
:1004E000A69EA6840F01550EA76EAA0EA76EA68221
:1004F000A6B2FED7A6940050F212F2CF00F0F29E00
:10050000130EA96E26C0A8FFA69CA69EA684550E13
:10051000A76EAA0EA76EA682A6B2FED7A69400501A
:10052000F212F2CF00F0F29E140EA96EA868A69CFB
:10053000A69EA684550EA76EAA0EA76EA682A6B288
:10054000FED7A6940050F212F2CF00F0F29E150EE4
:10055000A96EA868A69CA69EA684550EA76EAA0E94
:10056000A76EA682A6B2FED7A6940050F212000192
:1005700039DE233C01D051D0273C01D04ED0215050
:100580001D5C4BE303E120501C5C47E31D50255CE0
:1005900044E303E11C50245C40E32F6A306A20509E
:1005A0001C5C006E21501D58036E00C084F0856FE6
:1005B000866B876B87C08BF086C08AF0896F00C01E
:1005C00088F08F6B8E6B8D6B640E8C6FEAD603C0D8
:1005D0003BF002C03AF001C039F000C038F02050C2
:1005E000245C006E2150255800C03CF03D6E3E6AF0
:1005F0003F6AD8923BC087F03AC086F039C085F098
:1006000038C084F03FC08BF03EC08AF03DC089F016
:100610003CC088F0F1D600C040F012009290899062
:10062000080E016E00D00000018E0ED0019E8333B3
:10063000D8B08980D8A08990018C06D0019C012E69
:10064000F6D700D000008980130EE96EE92EFED7A0
:1006500000D0000001BEEAD701BCF0D71200230E83
:10066000836FDCDF5E0E836FD9DF1BC083F0D6DFC4
:10067000836BD4DF36C083F0D1DF32C083F0CEDFAE
:100680001EC083F0CBDF1FC083F0C8DF23C083F020
:10069000C5DF22C083F0C2DF27C083F0BFDF26C0E2
:1006A00083F0BCDF40C083F0B9DF2CC083F0B6DF3D
:1006B0002DC083F0B3DF3C0E836FB0DF3F0E836F3E
:1006C000ADDF12000900F5520CE0F6CF81F0F7CF54
:1006D00082F0F5CF83F0A2DF81C0F6FF82C0F7FF82
:1006E000F1D71200233C01D0DDD0273C01D0DAD075
:1006F0001D50215C45E303E120501C5C41E22F2AA0
:10070000406A2F5028083CE22F6A1DC021F01CC00F
:1007100020F020C022F021C023F01DC021F01CC019
:1007200020F0F250006EF29E100EA96E23C0A8FFBA
:10073000A69CA69EA6840F01550EA76EAA0EA76EB4
:10074000A682A6B2FED7A6940050F212F2CF00F015
:10075000F29E110EA96E22C0A8FFA69CA69EA6849A
:10076000550EA76EAA0EA76EA682A6B2FED7A694B5
:100770000050F212820EF66E010EF76E0001A2DF3B
:1007800025501D5C48E303E11C50245C44E2640EE8
:10079000406E325240E1302A305028083CE2306A44
:1007A0001DC025F01CC024F024C026F025C027F071
:1007B0001DC025F01CC024F0F250006EF29E120EF7
:1007C000A96E27C0A8FFA69CA69EA6840F01550E61
:1007D000A76EAA0EA76EA682A6B2FED7A694005058
:1007E000F212F2CF00F0F29E130EA96E26C0A8FFFF
:1007F000A69CA69EA684550EA76EAA0EA76EA682DC
:10080000A6B2FED7A6940050F2129E0EF66E010E0E
:10081000F76E000157DF322C3FD037B03DD0312A80
:1008200031501E0838E2316A1DC025F01CC024F08A
:1008300024C026F025C027F01DC025F01CC024F0E0
:10084000F250006EF29E120EA96E27C0A8FFA69C61
:10085000A69EA6840F01550EA76EAA0EA76EA682AD
:10086000A6B2FED7A6940050F212F2CF00F0F29E8C
:10087000130EA96E26C0A8FFA69CA69EA684550EA0
:10088000A76EAA0EA76EA682A6B2FED7A6940050A7
:10089000F2123780000106D0325204E137A002D0B4
:1008A000316A379069EF04F01A50355C08E31A5248
:1008B00006E040DD4BDDE8DDD2DE176A356A165012
:1008C000090807E21A5200E1166A436A446A3EDDEB
:1008D00009D71950185C03E3186A94928B729BEF46
:1008E00009F03650000A07E0010A0AE0110A0DE09B
:1008F000010A10E014D0949A8B9A94988B9813D094
:10090000949A8B9A94988B880ED0949A8B8A949808
:100910008B9809D0949A8B8A94988B8804D0949A57
:100920008B9A94988B989DEF09F09EA8FED7AD6E98
:10093000120037A20CD2379245502308D8A4ECD12C
:1009400046505E08D8A4E8D1475002081BE1939CAA
:100950008A8C010E846F32DC816B4350815D0DE225
:10096000036A8151450FE96E000E0320EA6EEFCF56
:1009700082F08251DADF812BF0D7030E846F1EDC08
:10098000939C8A9C472CC8D11B50485CD8A4C4D1E6
:1009900049500EE0010A18E0030A4DE0010AD8B4FC
:1009A000C4D0070AD8B4E4D0010AD8B440D1B2D137
:1009B0004A503C0808E14B503F0805E1BBDCC6DC6F
:1009C00063DD4DDEC1D1A8D14B503C0833E14C5022
:1009D0003F0830E14A50EF082AE3F250006EF29EE1
:1009E000A96A4AC0A8FFA69CA69EA6840F01550E20
:1009F000A76EAA0EA76EA682A6B2FED7A694005036
:100A0000F212010E0001846FDEEC00F0F2CF82F0F2
:100A1000F29EA96AA69CA69EA680A85082BFF28ECE
:100A20001A6E176A356A010E336E346E03D0010EEA
:100A3000346E336A71D14B503C08D8A475D04C50F9
:100A40003F0872E1020E346E336A4A5218E1366A88
:100A5000010E336EF250006EF29E020EA96EA86A6D
:100A6000A69CA69EA6840F01550EA76EAA0EA76E81
:100A7000A682A6B2FED7A6940050F21200014A50F8
:100A800010081AE1100E366E010E336EF250006E31
:100A9000F29E020EA96E100EA86EA69CA69EA684BB
:100AA0000F01550EA76EAA0EA76EA682A6B2FED79C
:100AB000A6940050F21200014A2C19D0010E366E95
:100AC000336EF250006EF29E020EA96E010EA86EF9
:100AD000A69CA69EA6840F01550EA76EAA0EA76E11
:100AE000A682A6B2FED7A6940050F21200014A5088
:100AF00011081AE1110E366E010E336EF250006EBF
:100B0000F29E020EA96E110EA86EA69CA69EA68449
:100B10000F01550EA76EAA0EA76EA682A6B2FED72B
:100B2000A6940050F2120001F7D04B503C081FE190
:100B30004C503F081CE1030E346EF250006EF29EE2
:100B4000010EA96E4AC0A8FFA69CA69EA6840F010E
:100B5000550EA76EAA0EA76EA682A6B2FED7A694C1
:100B60000050F2120001F2EC00F0010E336ED4D00E
:100B70004E503C085BE14F503F0858E1040E346E84
:100B8000010E336EF250006EF29E100EA96E4AC036
:100B9000A8FFA69CA69EA6840F01550EA76EAA0EBE
:100BA000A76EA682A6B2FED7A6940050F212F2CF8C
:100BB00000F0F29E110EA96E4BC0A8FFA69CA69E47
:100BC000A684550EA76EAA0EA76EA682A6B2FED761
:100BD000A6940050F212F2CF00F0F29E120EA96E0F
:100BE0004CC0A8FFA69CA69EA684550EA76EAA0E72
:100BF000A76EA682A6B2FED7A6940050F212F2CF3C
:100C000000F0F29E130EA96E4DC0A8FFA69CA69EF2
:100C1000A684550EA76EAA0EA76EA682A6B2FED710
:100C2000A6940050F2120001F2EC00F075D04F5083
:100C30003C086FE150503F086CE1F250006EF29EAC
:100C4000140EA96E4AC0A8FFA69CA69EA6840F01FA
:100C5000550EA76EAA0EA76EA682A6B2FED7A694C0
:100C60000050F212F2CF00F0F29E150EA96E4BC0AA
:100C7000A8FFA69CA69EA684550EA76EAA0EA76ED8
:100C8000A682A6B2FED7A6940050F212F2CF00F0D0
:100C9000F29E160EA96E4CC0A8FFA69CA69EA68426
:100CA000550EA76EAA0EA76EA682A6B2FED7A69470
:100CB0000050F212F2CF00F0F29E170EA96E4DC056
:100CC000A8FFA69CA69EA684550EA76EAA0EA76E88
:100CD000A682A6B2FED7A6940050F212F2CF00F080
:100CE000F29E180EA96E4EC0A8FFA69CA69EA684D2
:100CF000550EA76EAA0EA76EA682A6B2FED7A69420
:100D00000050F2120001F2EC00F0050E346E010EFC
:100D1000336E02D0336A346A230E836F7FDC5E0E3B
:100D2000836F7CDC010E836F79DC1BC083F076DC83
:100D300034C083F073DC33C083F070DC3C0E836F0F
:100D40006DDC3F0E836F6ADC336A346A436A9FEF5F
:100D500009F0939C8A8C010E846FDEEC00F0230E68
:100D6000E4DD5E0EE2DD1B50E0DD000EDEDD365020
:100D7000DCDD3250DADD1E50D8DD1F50D6DD2350C9
:100D8000D4DD2250D2DD2750D0DD2650CEDD4050BC
:100D9000CCDD2C50CADD2D50C8DD3C0EC6DD3F0E2B
:100DA000C4DD030E846FDEEC00F0939C8A9CEAEFB6
:100DB00008F037A412D2379463512308D8A4E6D19F
:100DC00064515E08D8A4E2D16551020812E1816B3A
:100DD0004450815D0EE2036A8151630FE96E000E9B
:100DE0000320EA6EEFCF82F082C083F017DC812B04
:100DF000EFD7652DCBD11B50665DD8A4C7D1675105
:100E00000EE0010A1BE0030A50E0010AD8B4C7D083
:100E1000070AD8B4E7D0010AD8B443D1B5D1685194
:100E20003C080BE169513F0808E19AEC01F0A6EC9F
:100E300001F044EC02F08DD7CDD1A8D169513C0826
:100E400033E16A513F0830E16851EF082AE3F2507C
:100E5000006EF29EA96A68C0A8FFA69CA69EA68402
:100E60000F01550EA76EAA0EA76EA682A6B2FED7D8
:100E7000A6940050F212010E0001846FDEEC00F027
:100E8000F2CF82F0F29EA96AA69CA69EA680A850E8
:100E900082BFF28E1A6E176A356A010E336E346E97
:100EA00003D0336A010E346E71D169513C08D8A465
:100EB00075D06A513F0872E1020E346E336A68538E
:100EC00018E1366A010E336EF250006EF29E020E89
:100ED000A96EA86AA69CA69EA6840F01550EA76EB1
:100EE000AA0EA76EA682A6B2FED7A6940050F21252
:100EF0000001685110081AE1100E366E010E336EB3
:100F0000F250006EF29E020EA96E100EA86EA69C04
:100F1000A69EA6840F01550EA76EAA0EA76EA682E6
:100F2000A6B2FED7A6940050F2120001682D19D087
:100F3000010E366E336EF250006EF29E020EA96EF6
:100F4000010EA86EA69CA69EA6840F01550EA76E44
:100F5000AA0EA76EA682A6B2FED7A6940050F212E1
:100F60000001685111081AE1110E366E010E336E40
:100F7000F250006EF29E020EA96E110EA86EA69C93
:100F8000A69EA6840F01550EA76EAA0EA76EA68276
:100F9000A6B2FED7A6940050F2120001F7D0695114
:100FA0003C081FE16A513F081CE1030E346EF25009
:100FB000006EF29E010EA96E68C0A8FFA69CA69EB8
:100FC000A6840F01550EA76EAA0EA76EA682A6B222
:100FD000FED7A6940050F2120001F2EC00F0010ED0
:100FE000336ED4D06C513C085BE16D513F0858E141
:100FF000040E346E010E336EF250006EF29E100E2F
:10100000A96E68C0A8FFA69CA69EA6840F01550ED7
:10101000A76EAA0EA76EA682A6B2FED7A69400500F
:10102000F212F2CF00F0F29E110EA96E69C0A8FF75
:10103000A69CA69EA684550EA76EAA0EA76EA68293
:10104000A6B2FED7A6940050F212F2CF00F0F29EA4
:10105000120EA96E6AC0A8FFA69CA69EA684550E75
:10106000A76EAA0EA76EA682A6B2FED7A6940050BF
:10107000F212F2CF00F0F29E130EA96E6BC0A8FF21
:10108000A69CA69EA684550EA76EAA0EA76EA68243
:10109000A6B2FED7A6940050F2120001F2EC00F0C6
:1010A00075D06D513C086FE16E513F086CE1F25014
:1010B000006EF29E140EA96E68C0A8FFA69CA69EA4
:1010C000A6840F01550EA76EAA0EA76EA682A6B221
:1010D000FED7A6940050F212F2CF00F0F29E150E49
:1010E000A96E69C0A8FFA69CA69EA684550EA76EF1
:1010F000AA0EA76EA682A6B2FED7A6940050F21240
:10110000F2CF00F0F29E160EA96E6AC0A8FFA69C50
:10111000A69EA684550EA76EAA0EA76EA682A6B29C
:10112000FED7A6940050F212F2CF00F0F29E170EF6
:10113000A96E6BC0A8FFA69CA69EA684550EA76E9E
:10114000AA0EA76EA682A6B2FED7A6940050F212EF
:10115000F2CF00F0F29E180EA96E6CC0A8FFA69CFC
:10116000A69EA684550EA76EAA0EA76EA682A6B24C
:10117000FED7A6940050F2120001F2EC00F0050E2A
:10118000346E010E336E02D0336A346A939C8A8CBB
:10119000010E846FDEEC00F0230E95EC04F05E0E81
:1011A00095EC04F0010E95EC04F01B5095EC04F066
:1011B000345095EC04F0335095EC04F03C0E95EC73
:1011C00004F03F0E95EC04F0030E846FDEEC00F0AB
:1011D000939C8A9C336A346A446AA0EF09F0F86AE7
:1011E000D09E078EB8864D0EAF6E000EB06EA60E66
:1011F000AC6E900EAB6E92908980166A176A186A70
:10120000196A1D6A1C6A1E6A1F6A2F6A306A316A6F
:10121000326A356A366A3790406A416A426A436A7E
:10122000446A37923794000E7E6EC190C192C19489
:10123000C1967F6E6B6A6D6A100E7E6EC190C19210
:10124000C194C196000E7F6EC050C00B0709C06EDE
:10125000C08EC280BA6AC69A949E9388939C010EEF
:10126000C66E000EC76EC00EF2129D80F0869D8A7B
:101270009E90F090B50ECD6E6D0ECF6E840ECE6E3C
:10128000939C8A9CF19A0A0E846FDEEC00F0F2ECDB
:1012900000F01A3C17D0F250006EF29EA96A050EBB
:1012A000A86EA69CA69EA6840F01550EA76EAA0E38
:1012B000A76EA682A6B2FED7A6940050F212050E23
:1012C0001A6E00011B3C17D0F250006EF29E010E08
:1012D000A96EA86EA69CA69EA6840F01550EA76EA9
:1012E000AA0EA76EA682A6B2FED7A6940050F2124E
:1012F000010E1B6E0001233C04D0273C02D0FE0EE1
:10130000406E363C16D0366AF250006EF29E020EE7
:10131000A96EA86AA69CA69EA6840F01550EA76E6C
:10132000AA0EA76EA682A6B2FED7A6940050F2120D
:10133000000154EF04F071EF04F099EF04F039D597
:04134000F8D70300D7
:020000040030CA
:0E0000000062181E0088890003C003E0034060
:00000001FF
;PIC18F14K22
;CRC=32CB  CREATED="04-ago.-15 15:44"
