:0400000070EF08F0A5
:08000800046ED8CF05F0E0CF33
:1000100006F00001E9CF0CF0EACF07F0E1CF08F0DD
:10002000E2CF09F0D9CF0AF0DACF0BF0F3CF12F01C
:10003000F4CF13F0FACF14F000C00EF001C00FF0AF
:1000400002C010F003C011F09DAA2AEF00F09EBA82
:10005000A5EF00F0F0A630EF00F0F0B08AEF00F06E
:100060009DA036EF00F09EB057EF00F00EC000F0FC
:100070000FC001F010C002F011C003F00CC0E9FF86
:1000800007C0EAFF078E08C0E1FF09C0E2FF0AC00F
:10009000D9FF0BC0DAFF12C0F3FF13C0F4FF14C086
:1000A000FAFF045006C0E0FF05C0D8FF10006D0E37
:1000B000CF6E840ECE6E162A182A172A17500908FA
:1000C00002E2176A342A9E9036EF00F0928280B2E4
:1000D000FED7080E006E956B008E0ED0009E0CD0E1
:1000E000D89080B2D8809533008C06D0009C002E2A
:1000F000F7D795C001F00CD0130E00BE050E016EAF
:10010000012EFED700D000BEE9D700BCEFD7E8D75C
:100110008EEF00F03F6A80B215D0D8D701C03FF013
:100120004150412A036A430FE96E000E0320EA6E34
:100130003FC0EFFF41501D0801E2416A3F503F08B8
:1001400001E17F81F09036EF00F0406A9EAA16D060
:100150009EAAFED7AECF40F04250422A036A610FFA
:10016000E96E000E0320EA6E40C0EFFF42501D080A
:1001700001E2426A40503F0801E17F839E9A36EFD8
:1001800000F0EA6A830EE96EEF500EE0030E016E96
:10019000006A002EFED7012EFBD7E30E006E002E64
:1001A000FED70000EF2EF2D71200010E836FE9DFB9
:1001B000F2CF83F0F29EA96AA69CA69EA680A850C4
:1001C00083BFF28E1A6EF2CF83F0F29E010EA96EFB
:1001D000A69CA69EA680A85083BFF28E1B6EF2CF6F
:1001E00083F0F29E020EA96EA69CA69EA680A85041
:1001F00083BFF28E356EF2CF83F0F29E110EA96EA0
:10020000A69CA69EA680A85083BFF28E226EF2CF37
:1002100083F0F29E100EA96EA69CA69EA680A85002
:1002200083BFF28E236EF2CF83F0F29E130EA96E7F
:10023000A69CA69EA680A85083BFF28E266EF2CF03
:1002400083F0F29E120EA96EA69CA69EA680A850D0
:1002500083BFF28E276EF2CF83F0F29E150EA96E49
:10026000A69CA69EA680A85083BFF28E2A6EF2CFCF
:1002700083F0F29E140EA96EA69CA69EA680A8509E
:1002800083BFF28E2B6EF2CF83F0F29E170EA96E13
:10029000A69CA69EA680A85083BFF28E2C6EF2CF9D
:1002A00083F0F29E160EA96EA69CA69EA680A8506C
:1002B00083BFF28E2E6EF2CF83F0F29E180EA96EDF
:1002C000A69CA69EA680A85083BFF28E2D6E23C04A
:1002D00021F0206A22502026000E212227C025F07E
:1002E000246A26502426000E25222BC029F0286AD5
:1002F0002A502826000E29221200948482A405D0B8
:10030000010E316E020E196E03D0316A0A0E196E9B
:100310001200100E016EC250C30B0110C26E630EAC
:10032000006E002EFED700D0C282C2B2FED7C3CF6D
:100330001CF0C4CF1DF01DC082F01CC081F081C034
:100340001FF082C01EF0120085518703F3CF01F029
:10035000F4CF00F08803F350002686518703F35052
:100360000020026E3FEF02F08F6B906B010E916FD9
:10037000DA6AD96A946B870E936FEA6A8B0EE96E1C
:1003800094C0E2FF93C0E1FF91C092F0D890E55095
:10039000EE02F3508F23F4509023922FF7D78FC0A3
:1003A000DEFF90C08FF0906BD8B0902B932BD8B419
:1003B000942B912B91510508E0E1CAEF02F0D8B2DD
:1003C00003D0EA6A8B0EE96E006A016A026A036A68
:1003D0008B6B8C6B8D6B8E6B8A5189118811871199
:1003E0002CE0200E8F6FD89083378437853786377F
:1003F0008B378C378D378E378A518E5D08E1895166
:100400008D5D05E188518C5D02E187518B5D0FE3C5
:1004100087518B5F8851D8A0883D8C5F8951D8A0C7
:10042000893D8D5F8A51D8A08A3D8E5FD880003685
:100430000136023603368F2FD6D78BC0EFFF8CC024
:10044000ECFF8DC0ECFF8EC0ECFFEEEF02F02B3C1A
:1004500001D072D0233C01D06FD02E3C01D06CD0A3
:10046000273C6AD02050285C836F21502958846F24
:10047000866F83C085F0886B2EC087F065D702C079
:1004800082F001C081F082C025F081C024F081C0DB
:1004900026F082C027F0F250006EF29E120EA96E76
:1004A00027C0A8FFA69CA69EA6840F01550EA76E86
:1004B000AA0EA76EA682A6B2FED7A6940050F2128C
:1004C000F2CF00F0F29E130EA96E26C0A8FFA69CE4
:1004D000A69EA684550EA76EAA0EA76EA682A6B2E9
:1004E000FED7A6940050F212F2CF00F0F29E140E46
:1004F000A96EA868A69CA69EA684550EA76EAA0EF5
:10050000A76EA682A6B2FED7A6940050F212F2CF32
:1005100000F0F29E150EA96EA868A69CA69EA68461
:10052000550EA76EAA0EA76EA682A6B2FED7A694F7
:100530000050F212000139DE233C01D051D0273C9B
:1005400001D04ED021501D5C4BE303E120501C5CD8
:1005500047E31D50255C44E303E11C50245C40E369
:100560002F6A306A20501C5C006E21501D58036EAB
:1005700000C083F0846F856B866B86C08AF085C06F
:1005800089F0886F00C087F08E6B8D6B8C6B640E6A
:100590008B6FEAD603C039F002C038F001C037F0E3
:1005A00000C036F02050245C006E2150255800C059
:1005B0003AF03B6E3C6A3D6AD89239C086F038C04A
:1005C00085F037C084F036C083F03DC08AF03CC06F
:1005D00089F03BC088F03AC087F0F1D600C03EF009
:1005E000120092908990080E016E00D00000018EDA
:1005F0000ED0019E8233D8B08980D8A08990018C1A
:1006000006D0019C012EF6D700D000008980130E81
:10061000E96EE92EFED700D0000001BEEAD701BC8A
:10062000F0D71200230E826FDCDF5E0E826FD9DFFF
:100630001BC082F0D6DF826BD4DF35C082F0D1DF01
:1006400031C082F0CEDF1EC082F0CBDF1FC082F04F
:10065000C8DF23C082F0C5DF22C082F0C2DF27C01E
:1006600082F0BFDF26C082F0BCDF3EC082F0B9DF7F
:100670002CC082F0B6DF2DC082F0B3DF3C0E826F5B
:10068000B0DF3F0E826FADDF1200233C01D08BD074
:10069000273C01D088D01D50215C40E303E120506D
:1006A0001C5C3CE22F2A3E6A2F50280837E22F6A52
:1006B0001DC021F01CC020F020C022F021C023F07A
:1006C0001DC021F01CC020F0F250006EF29E100EF2
:1006D000A96E23C0A8FFA69CA69EA6840F01550E56
:1006E000A76EAA0EA76EA682A6B2FED7A694005049
:1006F000F212F2CF00F0F29E110EA96E22C0A8FFF6
:10070000A69CA69EA684550EA76EAA0EA76EA682CC
:10071000A6B2FED7A6940050F212000125501D5C2F
:1007200042E303E11C50245C3EE2640E3E6E315213
:100730003AE1302A3050280836E2306A1DC025F0F0
:100740001CC024F024C026F025C027F01DC025F0D1
:100750001CC024F0F250006EF29E120EA96E27C04B
:10076000A8FFA69CA69EA6840F01550EA76EAA0EF2
:10077000A76EA682A6B2FED7A6940050F212F2CFC0
:1007800000F0F29E130EA96E26C0A8FFA69CA69E9E
:10079000A684550EA76EAA0EA76EA682A6B2FED795
:1007A000A6940050F2120001EBEF03F01A50345CF3
:1007B00008E31A5206E0A1DDACDD49DE33DF176A3B
:1007C000346A1650090807E21A5200E1166A416AB3
:1007D000426A9FDD5AD71950185C03E3186A949255
:1007E0008B721AEF09F03550000A07E0010A0AE09F
:1007F000110A0DE0010A10E014D0949A8B9A949893
:100800008B9813D0949A8B9A94988B880ED0949A44
:100810008B8A94988B9809D0949A8B8A94988B8819
:1008200004D0949A8B9A94988B981CEF09F09EA808
:10083000FED7AD6E12007FA10BD27F9143502308EB
:10084000D8A4EBD144505E08D8A4E7D145500208A3
:100850001BE1939C8A8C010E836F93DC806B41506B
:10086000805D0DE2036A8051430FE96E000E0320A4
:10087000EA6EEFCF81F08151DADF802BF0D7030EE3
:10088000836F7FDC939C8A9C452CC7D11B50465CB0
:10089000D8A4C3D147500EE0010A18E0030A4CE087
:1008A000010AD8B4C3D0070AD8B4E3D0010AD8B437
:1008B0003FD1B1D148503C0808E149503F0805E11B
:1008C0001CDD27DDC4DDAEDEC0D1A7D149503C0818
:1008D00032E14A503F082FE14850EF0829E3F25037
:1008E000006EF29EA96A48C0A8FFA69CA69EA68498
:1008F0000F01550EA76EAA0EA76EA682A6B2FED74E
:10090000A6940050F212010E0001836F3ADCF2CF80
:1009100081F0F29EA96AA69CA69EA680A85081BFDF
:10092000F28E1A6E176A346A010E326E336E03D07D
:10093000010E336E326A71D149503C08D8A475D08B
:100940004A503F0872E1020E336E326A485218E193
:10095000356A010E326EF250006EF29E020EA96EE2
:10096000A86AA69CA69EA6840F01550EA76EAA0E85
:10097000A76EA682A6B2FED7A6940050F21200017E
:10098000485010081AE1100E356E010E326EF2500A
:10099000006EF29E020EA96E100EA86EA69CA69E78
:1009A000A6840F01550EA76EAA0EA76EA682A6B248
:1009B000FED7A6940050F2120001482C19D0010E67
:1009C000356E326EF250006EF29E020EA96E010E6E
:1009D000A86EA69CA69EA6840F01550EA76EAA0E11
:1009E000A76EA682A6B2FED7A6940050F21200010E
:1009F000485011081AE1110E356E010E326EF25098
:100A0000006EF29E020EA96E110EA86EA69CA69E06
:100A1000A6840F01550EA76EAA0EA76EA682A6B2D7
:100A2000FED7A6940050F2120001F7D049503C08BE
:100A30001FE14A503F081CE1030E336EF250006E76
:100A4000F29E010EA96E48C0A8FFA69CA69EA68491
:100A50000F01550EA76EAA0EA76EA682A6B2FED7EC
:100A6000A6940050F2120001D5EC00F0010E326E97
:100A7000D4D04C503C085BE14D503F0858E1040E87
:100A8000336E010E326EF250006EF29E100EA96EA1
:100A900048C0A8FFA69CA69EA6840F01550EA76E6F
:100AA000AA0EA76EA682A6B2FED7A6940050F21296
:100AB000F2CF00F0F29E110EA96E49C0A8FFA69CCD
:100AC000A69EA684550EA76EAA0EA76EA682A6B2F3
:100AD000FED7A6940050F212F2CF00F0F29E120E52
:100AE000A96E4AC0A8FFA69CA69EA684550EA76E16
:100AF000AA0EA76EA682A6B2FED7A6940050F21246
:100B0000F2CF00F0F29E130EA96E4BC0A8FFA69C78
:100B1000A69EA684550EA76EAA0EA76EA682A6B2A2
:100B2000FED7A6940050F2120001D5EC00F075D06B
:100B30004D503C086FE14E503F086CE1F250006EA2
:100B4000F29E140EA96E48C0A8FFA69CA69EA6847D
:100B50000F01550EA76EAA0EA76EA682A6B2FED7EB
:100B6000A6940050F212F2CF00F0F29E150EA96E7C
:100B700049C0A8FFA69CA69EA684550EA76EAA0EE5
:100B8000A76EA682A6B2FED7A6940050F212F2CFAC
:100B900000F0F29E160EA96E4AC0A8FFA69CA69E63
:100BA000A684550EA76EAA0EA76EA682A6B2FED781
:100BB000A6940050F212F2CF00F0F29E170EA96E2A
:100BC0004BC0A8FFA69CA69EA684550EA76EAA0E93
:100BD000A76EA682A6B2FED7A6940050F212F2CF5C
:100BE00000F0F29E180EA96E4CC0A8FFA69CA69E0F
:100BF000A684550EA76EAA0EA76EA682A6B2FED731
:100C0000A6940050F2120001D5EC00F0050E336EF0
:100C1000010E326E02D0326A336A230E826FE1DC3B
:100C20005E0E826FDEDC010E826FDBDC1BC082F0A9
:100C3000D8DC33C082F0D5DC32C082F0D2DC3C0E8E
:100C4000826FCFDC3F0E826FCCDC326A336A416A3E
:100C50001EEF09F0939C8A8C010E836FC1EC00F0AB
:100C6000230EE5DD5E0EE3DD1B50E1DD000EDFDD72
:100C70003550DDDD3150DBDD1E50D9DD1F50D7DDB5
:100C80002350D5DD2250D3DD2750D1DD2650CFDDD6
:100C90003E50CDDD2C50CBDD2D50C9DD3C0EC7DDE7
:100CA0003F0EC5DD030E836FC1EC00F0939C8A9C60
:100CB0006BEF08F07FA312D27F9361512308D8A471
:100CC000E6D162515E08D8A4E2D16351020812E174
:100CD000806B4250805D0EE2036A8051610FE96EC5
:100CE000000E0320EA6EEFCF81F081C082F079DC44
:100CF000802BEFD7632DCBD11B50645DD8A4C7D117
:100D000065510EE0010A1BE0030A50E0010AD8B465
:100D1000C7D0070AD8B4E7D0010AD8B443D1B5D1B7
:100D200066513C080BE167513F0808E17DEC01F09A
:100D300089EC01F027EC02F08DD7CDD1A8D1675115
:100D40003C0833E168513F0830E16651EF082AE37F
:100D5000F250006EF29EA96A66C0A8FFA69CA69EED
:100D6000A6840F01550EA76EAA0EA76EA682A6B284
:100D7000FED7A6940050F212010E0001836FC1EC61
:100D800000F0F2CF81F0F29EA96AA69CA69EA680F2
:100D9000A85081BFF28E1A6E176A346A010E326E45
:100DA000336E03D0326A010E336E71D167513C0845
:100DB000D8A475D068513F0872E1020E336E326AD2
:100DC000665318E1356A010E326EF250006EF29EE3
:100DD000020EA96EA86AA69CA69EA6840F01550EB7
:100DE000A76EAA0EA76EA682A6B2FED7A694005042
:100DF000F2120001665110081AE1100E356E010E54
:100E0000326EF250006EF29E020EA96E100EA86EA7
:100E1000A69CA69EA6840F01550EA76EAA0EA76ECD
:100E2000A682A6B2FED7A6940050F2120001662D4B
:100E300019D0010E356E326EF250006EF29E020E27
:100E4000A96E010EA86EA69CA69EA6840F01550E43
:100E5000A76EAA0EA76EA682A6B2FED7A6940050D1
:100E6000F2120001665111081AE1110E356E010EE1
:100E7000326EF250006EF29E020EA96E110EA86E36
:100E8000A69CA69EA6840F01550EA76EAA0EA76E5D
:100E9000A682A6B2FED7A6940050F2120001F7D0A7
:100EA00067513C081FE168513F081CE1030E336E97
:100EB000F250006EF29E010EA96E66C0A8FFA69CBD
:100EC000A69EA6840F01550EA76EAA0EA76EA68237
:100ED000A6B2FED7A6940050F2120001D5EC00F0A5
:100EE000010E326ED4D06A513C085BE16B513F0871
:100EF00058E1040E336E010E326EF250006EF29E17
:100F0000100EA96E66C0A8FFA69CA69EA6840F011F
:100F1000550EA76EAA0EA76EA682A6B2FED7A694FD
:100F20000050F212F2CF00F0F29E110EA96E67C0CF
:100F3000A8FFA69CA69EA684550EA76EAA0EA76E15
:100F4000A682A6B2FED7A6940050F212F2CF00F00D
:100F5000F29E120EA96E68C0A8FFA69CA69EA6844B
:100F6000550EA76EAA0EA76EA682A6B2FED7A694AD
:100F70000050F212F2CF00F0F29E130EA96E69C07B
:100F8000A8FFA69CA69EA684550EA76EAA0EA76EC5
:100F9000A682A6B2FED7A6940050F2120001D5ECAC
:100FA00000F075D06B513C086FE16C513F086CE16B
:100FB000F250006EF29E140EA96E66C0A8FFA69CA9
:100FC000A69EA6840F01550EA76EAA0EA76EA68236
:100FD000A6B2FED7A6940050F212F2CF00F0F29E15
:100FE000150EA96E67C0A8FFA69CA69EA684550EE6
:100FF000A76EAA0EA76EA682A6B2FED7A694005030
:10100000F212F2CF00F0F29E160EA96E68C0A8FF91
:10101000A69CA69EA684550EA76EAA0EA76EA682B3
:10102000A6B2FED7A6940050F212F2CF00F0F29EC4
:10103000170EA96E69C0A8FFA69CA69EA684550E91
:10104000A76EAA0EA76EA682A6B2FED7A6940050DF
:10105000F212F2CF00F0F29E180EA96E6AC0A8FF3D
:10106000A69CA69EA684550EA76EAA0EA76EA68263
:10107000A6B2FED7A6940050F2120001D5EC00F003
:10108000050E336E010E326E02D0326A336A939CC3
:101090008A8C010E836FC1EC00F0230E17EC04F074
:1010A0005E0E17EC04F0010E17EC04F01B5017EC69
:1010B00004F0335017EC04F0325017EC04F03C0EFF
:1010C00017EC04F03F0E17EC04F0030E836FC1EC35
:1010D00000F0939C8A9C326A336A426A1FEF09F0DF
:1010E000F86AD09E078EB8864D0EAF6E000EB06EB9
:1010F000A60EAC6E900EAB6E92908980166A176A3F
:10110000186A196A1D6A1C6A1E6A1F6A2F6A306A89
:10111000316A346A356A3E6A3F6A406A416A426AA5
:101120007F917F93000E7E6EC190C192C194C19653
:101130007F6E6B6A6D6A100E7E6EC190C192C19413
:10114000C196000E7F6EC050C00B0709C06EC08EE6
:10115000C280BA6AC69A949E9388939C010EC66E0A
:10116000000EC76EC00EF2129D80F0869D8A9E9082
:10117000F090B50ECD6E6D0ECF6E840ECE6E939C3C
:101180008A9CF19A0A0E836FC1EC00F0D5EC00F056
:101190001A3C17D0F250006EF29EA96A050EA86E96
:1011A000A69CA69EA6840F01550EA76EAA0EA76E3A
:1011B000A682A6B2FED7A6940050F212050E1A6EB1
:1011C00000011B3C17D0F250006EF29E010EA96E7A
:1011D000A86EA69CA69EA6840F01550EA76EAA0E09
:1011E000A76EA682A6B2FED7A6940050F212010EF8
:1011F0001B6E0001233C04D0273C02D0FE0E3E6E45
:10120000353C16D0356AF250006EF29E020EA96E81
:10121000A86AA69CA69EA6840F01550EA76EAA0ECC
:10122000A76EA682A6B2FED7A6940050F2120001C5
:10123000D6EF03F0F3EF03F01BEF04F03BD5F8D744
:021240000300A9
:020000040030CA
:0E0000000062181E0088890003C003E0034060
:00000001FF
;PIC18F14K22
;CRC=D252  CREATED="05-mar.-15 14:58"
