:04000000EBEF06F02C
:08000800046ED8CF05F0E0CF33
:1000100006F00001E9CF0CF0EACF07F0E1CF08F0DD
:10002000E2CF09F0D9CF0AF0DACF0BF0F3CF12F01C
:10003000F4CF13F0FACF14F000C00EF001C00FF0AF
:1000400002C010F003C011F09DAA2AEF00F09EBA82
:10005000F8EF00F0F0A630EF00F0F0B090EF00F015
:10006000F0A836EF00F0F0B2CFEF00F09DA03CEF2B
:1000700000F09EB05DEF00F00EC000F00FC001F088
:1000800010C002F011C003F00CC0E9FF07C0EAFF86
:10009000078E08C0E1FF09C0E2FF0AC0D9FF0BC00C
:1000A000DAFF12C0F3FF13C0F4FF14C0FAFF0450CC
:1000B00006C0E0FF05C0D8FF10006D0ECF6E840EA5
:1000C000CE6E162A182A172A1750090802E2176A54
:1000D000372A9E903CEF00F0928280B2FED7080E45
:1000E000006EA06B008E0ED0009E0CD0D89080B217
:1000F000D880A033008C06D0009C002EF7D7A0C07B
:1001000001F00CD0130E00BE050E016E012EFED7BD
:1001100000D000BEE9D700BCEFD7E8D794EF00F0DD
:10012000426A80B215D0D8D701C042F04450442A68
:10013000036A470FE96E000E0320EA6E42C0EFFF2C
:1001400044501D0801E2446A42503F0801E18D819C
:10015000F0903CEF00F0928480B4FED7080E006E61
:10016000A46B008E0ED0009E0CD0D89080B4D880A6
:10017000A433008C06D0009C002EF7D7A4C001F059
:100180000CD0610E00BE1A0E016E012EFED700D0FB
:1001900000BEE9D700BCEFD7E8D7DEEF00F080B4AF
:1001A00024D04650462A036A830FE96E000E0320CE
:1001B000EA6EEACFA3F0E9CFA2F0CDD7A3C0EAFF61
:1001C000A2C0E9FF01C0EFFF4650090801E2466AFC
:1001D000010E465C036A830FE96E000E0320EA6E8F
:1001E000EF500D0802E18D85466AF0923CEF00F079
:1001F000436A9EAA16D09EAAFED7AECF43F04550C2
:10020000452A036A650FE96E000E0320EA6E43C0BB
:10021000EFFF45501D0801E2456A43503F0801E1E8
:100220008D839E9A3CEF00F04E6F20657320756EB3
:1002300020636F6D616E646F2076616C69646F2CF2
:10024000206E6F207365207265636962696F206D2F
:100250006564696461200A090D00EA6A8F0EE96E1F
:10026000EF500EE0030E016E006A002EFED7012E45
:10027000FBD7E30E006E002EFED70000EF2EF2D764
:100280001200010E8F6FE9DFF2CF8FF0F29EA96AA4
:10029000A69CA69EA680A8508FBFF28E1A6EF2CFA3
:1002A0008FF0F29E010EA96EA69CA69EA680A85075
:1002B0008FBFF28E1B6EF2CF8FF0F29E020EA96EF0
:1002C000A69CA69EA680A8508FBFF28E386EF2CF55
:1002D0008FF0F29E100EA96EA69CA69EA680A85036
:1002E0008FBFF28E2E6EF2CF8FF0F29E110EA96E9E
:1002F000A69CA69EA680A8508FBFF28E2F6EF2CF2E
:100300008FF0F29E120EA96EA69CA69EA680A85003
:100310008FBFF28E326EF2CF8FF0F29E130EA96E67
:10032000A69CA69EA680A8508FBFF28E336E2EC0CC
:100330002DF02C6A2F502C26000E2D2232C031F0C9
:10034000306A33503026000E31221200948482A489
:1003500005D0010E346E020E196E03D0346A0A0EF7
:10036000196ED2EF02F093988A98D3EF02F09A6B4D
:100370009B6B010E9C6FDA6AD96A9F6B920E9E6F1F
:10038000EA6A960EE96E9FC0E2FF9EC0E1FF9CC044
:100390009DF0D890E550EE02F3509A23F4509B2341
:1003A0009D2FF7D79AC0DEFF9BC09AF09B6BD8B009
:1003B0009B2B9E2BD8B49F2B9C2B9C510508E0E1D6
:1003C00056EF02F0D8B203D0EA6A960EE96E006AE0
:1003D000016A026A036A966B976B986B996B9551E9
:1003E0009411931192112CE0200E9A6FD8908E37B1
:1003F0008F37903791379637973798379937955188
:10040000995D08E19451985D05E19351975D02E192
:100410009251965D0FE39251965F9351D8A0933D10
:10042000975F9451D8A0943D985F9551D8A0953D81
:10043000995FD88000360136023603369A2FD6D718
:1004400096C0EFFF97C0ECFF98C0ECFF99C0ECFF9F
:100450007AEF02F02E3C01D058D02F3C01D055D07D
:1004600031501F5C4AE303E130501E5C46E31F50ED
:100470002D5C43E303E11E502C5C3FE31E502C5CDB
:10048000006E1F502D58036E00C08EF08F6F906B62
:10049000916B91C095F090C094F0936F00C092F072
:1004A000996B986B976B640E966F61D703C03CF0A5
:1004B00002C03BF001C03AF000C039F030502C5C73
:1004C000006E31502D5800C03DF03E6E3F6A406ACC
:1004D000D8923CC091F03BC090F03AC08FF039C048
:1004E0008EF040C095F03FC094F03EC093F03DC008
:1004F00092F068D700C041F008D02D501F5C05E392
:1005000003E11E502C5C01E2416AD4EF02F09290AC
:100510008990080E016E00D00000018E0ED0019E61
:100520009033D8B08980D8A08990018C06D0019CE6
:10053000012EF6D700D000008980130EE96EE92E57
:10054000FED700D0000001BEEAD701BCF0D71200F0
:10055000230E906FDCDF5E0E906FD9DF20C090F02D
:10056000D6DF21C090F0D3DF2EC090F0D0DF2FC0B7
:1005700090F0CDDF32C090F0CADF33C090F0C7DF1B
:1005800041C090F0C4DF3C0E906FC1DF3F0E906F12
:10059000BEDF12001650090808E2166A446A456A6E
:1005A000466AD4D6E0D656D7D3DF1950185C03E399
:1005B000186A94928B72ADEF07F03850000A07E08A
:1005C000010A0AE0110A0BE0010A0CE010D0949E27
:1005D0008B9E949C8B9C0FD0949C8B8C0CD0949E67
:1005E0008B8E09D0949E8B8E949C8B8C04D0949E81
:1005F0008B9E949C8B9CAFEF07F09EA8FED7AD6EB0
:1006000012008DA192D18D9147502308D8A472D1A8
:1006100048505E08D8A46ED1495002081BE1939C53
:100620008A8C010E8F6F19DE8E6B44508E5D0DE249
:10063000036A8E51470FE96E000E0320EA6EEFCF7A
:100640008FF08F51DADF8E2BF0D7030E8F6F05DE20
:10065000939C8A9C492C4ED14B500EE0010A15E028
:10066000030A40E0010AD8B4B7D0070AD8B4D7D0FB
:10067000010AD8B432D13CD14C503C0805E14D5070
:100680003F0802E165DF4ED135D14D503C0829E1EC
:100690004E503F0826E14C50EF0820E3F250006E28
:1006A000F29EA96A4CC0A8FFA69CA69EA6840F0134
:1006B000550EA76EAA0EA76EA682A6B2FED7A69466
:1006C0000050F212010E00018F6FC7DD4CC01AF00E
:1006D000176A376A010E356E366E03D0010E366E1C
:1006E000356A08D14D503C08D8A475D04E503F080B
:1006F00072E1020E366E356A4C5218E1386A010E0C
:10070000356EF250006EF29E020EA96EA86AA69C8B
:10071000A69EA6840F01550EA76EAA0EA76EA682EE
:10072000A6B2FED7A6940050F21200014C50100859
:100730001AE1100E386E010E356EF250006EF29E08
:10074000020EA96E100EA86EA69CA69EA6840F018E
:10075000550EA76EAA0EA76EA682A6B2FED7A694C5
:100760000050F21200014C2C19D0010E386E356E7B
:10077000F250006EF29E020EA96E010EA86EA69CAB
:10078000A69EA6840F01550EA76EAA0EA76EA6827E
:10079000A6B2FED7A6940050F21200014C501108E8
:1007A0001AE1110E386E010E356EF250006EF29E97
:1007B000020EA96E110EA86EA69CA69EA6840F011D
:1007C000550EA76EAA0EA76EA682A6B2FED7A69455
:1007D0000050F21200018ED04D503C081FE14E50E7
:1007E0003F081CE1030E366EF250006EF29E010EC1
:1007F000A96E4CC0A8FFA69CA69EA6840F01550E0C
:10080000A76EAA0EA76EA682A6B2FED7A694005027
:10081000F2124CC01BF0010E356E00016BD050502F
:100820003C085AE151503F0857E1040E366E010E64
:10083000356EF250006EF29E100EA96E4CC0A8FFED
:10084000A69CA69EA6840F01550EA76EAA0EA76EA3
:10085000A682A6B2FED7A6940050F212F2CF00F004
:10086000F29E110EA96E4DC0A8FFA69CA69EA6845E
:10087000550EA76EAA0EA76EA682A6B2FED7A694A4
:100880000050F212F2CF00F0F29E120EA96E4EC08E
:10089000A8FFA69CA69EA684550EA76EAA0EA76EBC
:1008A000A682A6B2FED7A6940050F212F2CF00F0B4
:1008B000F29E130EA96E4FC0A8FFA69CA69EA6840A
:1008C000550EA76EAA0EA76EA682A6B2FED7A69454
:1008D0000050F2120001D5DC0DD051503C0807E168
:1008E00052503F0804E1050E366E010E356E02D0FF
:1008F000356A366A230E906F0ADE5E0E906F07DE51
:10090000010E906F04DE1BC090F001DE36C090F047
:10091000FEDD35C090F0FBDD3C0E906FF8DD3F0E44
:10092000906FF5DD356A366A446AB1EF07F0939C43
:100930008A8C010E8F6F91DC230E5FDE5E0E5DDE12
:100940001B505BDE000E59DE385057DE345055DE4A
:10095000205053DE215051DE2E504FDE2F504DDE01
:1009600032504BDE335049DE415047DE1C5045DEED
:100970001D5043DE3C0E41DE3F0E3FDE030E8F6F07
:100980006CDC939C8A9C56EF06F08DA392D18D93DC
:1009900065512308D8A46ED166515E08D8A46AD1E7
:1009A0006751020812E18E6B45508E5D0EE2036ABC
:1009B0008E51650FE96E000E0320EA6EEFCF8FF0C7
:1009C0008FC090F0A4DD8E2BEFD7672D53D11B5035
:1009D000685DD8A44FD169510EE0010A15E0030A01
:1009E00040E0010AD8B4B7D0070AD8B4D7D0010A7A
:1009F000D8B433D13DD16A513C0805E16B513F0871
:100A000002E195D753D136D16B513C0829E16C51A5
:100A10003F0826E16A51EF0820E3F250006EF29E93
:100A2000A96A6AC0A8FFA69CA69EA6840F01550EBF
:100A3000A76EAA0EA76EA682A6B2FED7A6940050F5
:100A4000F212010E00018F6F08DC6AC01AF0176AFB
:100A5000376A010E356E366E03D0356A010E366E7A
:100A600009D16B513C08D8A475D06C513F0872E194
:100A7000020E366E356A6A5318E1386A010E356E19
:100A8000F250006EF29E020EA96EA86AA69CA69E67
:100A9000A6840F01550EA76EAA0EA76EA682A6B257
:100AA000FED7A6940050F21200016A5110081AE114
:100AB000100E386E010E356EF250006EF29E020E70
:100AC000A96E100EA86EA69CA69EA6840F01550EB8
:100AD000A76EAA0EA76EA682A6B2FED7A694005055
:100AE000F21200016A2D19D0010E386E356EF250E7
:100AF000006EF29E020EA96E010EA86EA69CA69E26
:100B0000A6840F01550EA76EAA0EA76EA682A6B2E6
:100B1000FED7A6940050F21200016A5111081AE1A2
:100B2000110E386E010E356EF250006EF29E020EFE
:100B3000A96E110EA86EA69CA69EA6840F01550E46
:100B4000A76EAA0EA76EA682A6B2FED7A6940050E4
:100B5000F21200018FD06B513C081FE16C513F082D
:100B60001CE1030E366EF250006EF29E010EA96E6D
:100B70006AC0A8FFA69CA69EA6840F01550EA76E6C
:100B8000AA0EA76EA682A6B2FED7A6940050F212B5
:100B90006AC01BF0010E356E00016CD06E513C082E
:100BA0005BE16F513F0858E1040E366E010E356E61
:100BB000F250006EF29E100EA96E6AC0A8FFA69CAD
:100BC000A69EA6840F01550EA76EAA0EA76EA6823A
:100BD000A6B2FED7A6940050F212F2CF00F0F29E19
:100BE000110EA96E6BC0A8FFA69CA69EA684550EEA
:100BF000A76EAA0EA76EA682A6B2FED7A694005034
:100C0000F212F2CF00F0F29E120EA96E6CC0A8FF95
:100C1000A69CA69EA684550EA76EAA0EA76EA682B7
:100C2000A6B2FED7A6940050F212F2CF00F0F29EC8
:100C3000130EA96E6DC0A8FFA69CA69EA684550E95
:100C4000A76EAA0EA76EA682A6B2FED7A6940050E3
:100C5000F212000141EC01F00DD06F513C0807E1A8
:100C600070513F0804E1050E366E010E356E02D05C
:100C7000356A366A939C8A8C010E8F6F2DEC01F0D9
:100C8000230EBBDC5E0EB9DC010EB7DC1B50B5DCFD
:100C90003650B3DC3550B1DC3C0EAFDC3F0EADDC82
:100CA000030E8F6F2DEC01F0939C8A9C356A366A97
:100CB000456AB2EF07F090519203F3CF01F0F4CF01
:100CC00000F09303F350002691519203F35000205B
:100CD000026E12000900F5520CE0F6CF8EF0F7CF4D
:100CE0008FF0F5CF90F013DC8EC0F6FF8FC0F7FFCA
:100CF000F1D7E9EF06F08DA56CD08D9593988A8891
:100D00008351520861E188510D085EE18F6B84C008
:100D10008EF0300E8E5F000E8F5B8FC091F08EC014
:100D200090F0030E936FE80E926FC5DF02C025F0BE
:100D300001C024F08F6B85C08EF0300E8E5F000EE8
:100D40008F5B8FC091F08EC090F0936B640E926FAA
:100D5000B2DF02C027F001C026F08F6B86C08EF094
:100D6000300E8E5F000E8F5B8FC091F08EC090F0C2
:100D7000936B0A0E926F9FDF02C029F001C028F02A
:100D80008F6B87C08EF0300E8E5F000E8F5B8FC032
:100D90002BF08EC02AF0265024248E6F2750252059
:100DA0008F6F28508E2729508F232A508E251E6E34
:100DB0002B508F211F6E1FC023F01EC022F022C0B7
:100DC00021F023C020F005D0280EF66E020EF76E3B
:100DD00081D7B3EF07F0F86AD09E078EB8864D0E24
:100DE000AF6E000EB06EA60EAC6E900EAB6E929013
:100DF000898094908B80166A176A186A196AFE0EA9
:100E00001C6E1D6E1F6A1E6A206A216A236A226A8E
:100E1000010E326E2C0E336E346A376A386A3C6AC1
:100E20003B6A3A6A396A406A3F6A3E6A3D6A416A89
:100E3000426A436A446A456A466A8D918D938D95EC
:100E4000000E7E6EC190C192C194C1967F6E6B6A96
:100E50006D6A800E7E6EC190C192C194C196000EE3
:100E60007F6EC050C00B0709C06EC08EC280BA6AC8
:100E7000C69A949E9388939C010EC66E000EC76E10
:100E8000C00EF2129D80F086F0889D8A9E90F090B0
:100E9000F092B50ECD6E6D0ECF6E840ECE6E939C1D
:100EA0008A9CF19AF19893988A880A0E8F6F2DEC9C
:100EB00001F041EC01F01A3C17D0F250006EF29EA6
:100EC000A96A010EA86EA69CA69EA6840F01550EC7
:100ED000A76EAA0EA76EA682A6B2FED7A694005051
:100EE000F212010E1A6E00011B3C17D0F250006E78
:100EF000F29E010EA96EA86EA69CA69EA6840F0166
:100F0000550EA76EAA0EA76EA682A6B2FED7A6940D
:100F10000050F212010E1B6E00012E3C04D0323C38
:100F200002D0FE0E416E383C16D0386AF250006E88
:100F3000F29E020EA96EA86AA69CA69EA6840F0128
:100F4000550EA76EAA0EA76EA682A6B2FED7A694CD
:100F50000050F2120001CAEF02F0DDEF02F001EFE3
:0A0F600003F013D5C8D6F7D703003D
:020000040030CA
:0E0000000062181E0088890003C003E0034060
:00000001FF
;PIC18F14K22
;CRC=565C  CREATED="22-mar.-16 17:55"
