:020000040000FA
:0600000099EF79F01200F7
:020006001200E6
:06000800F5EF53F01200B9
:02000E000000F0
:060010001010400040004A
:020016001200D6
:06001800F5EF53F01200A9
:02001E000800D8
:10002000ABF40000A90300002C000000A9F40000BC
:10003000FD01000002000000A0F4000071040000B7
:100040000900000094F40000650400000C000000AA
:1000500076F40000470400001E00000064F4000075
:10006000E30200001200000044F400002704000036
:1000700020000000F4F30000930200005000000094
:1000800000001200D9CFE6FFE1CFD9FF090EE1262B
:10009000D6CF23F0FE0EDBCF28F0B5EC79F01F5061
:1000A000DF6EDF50000845E2DF06CBEC74F0010E96
:1000B00020C0DBFF020E21C0DBFF030E22C0DBFFEE
:1000C000040E23C0DBFFCBEC74F0050E20C0DBFF79
:1000D000060E21C0DBFF070E22C0DBFF080E23C087
:1000E000DBFF050EDBCF04F0060EDBCF05F0070EBD
:1000F000DBCF06F0080EDBCF07F0D950010FE96E19
:10010000DACFEAFFEE50045C006EEE500558016E47
:10011000EE500658026EEE500758036ED8803E0E21
:100120000054000E0154000E0254000E0354CBE2A2
:10013000B8D7090EE15C02E2E16AE552E16EE552F0
:10014000E7CFD9FF1200D9CFE6FFE1CFD9FF2D0EBF
:10015000E1262DEC52F0000902E186EF16F00101D4
:1001600028B53AEF1AF0016B5051040B01E0010E73
:10017000030BF36EFC0E0115F310016F5051019744
:10018000080B01E001875051030B010802E1010E49
:1001900001D0000E019BE8B0018B5051019D800BF6
:1001A00001E0018D50AF05D0018F51C104F152C162
:1001B00005F157C10AF156C109F128955051030BB9
:1001C000010A02E115EF0FF0020A02E1B2EF0DF0B1
:1001D000030A02E081EF16F00A0E555D02E281EF9C
:1001E00016F0020EEA6A5325E96E5451EA22090E0E
:1001F000EFCFDBFF030EEA6A5325E96E5451EA2282
:100200000A0EEFCFDBFF040EEA6A5325E96E545164
:10021000EA220F0EEFCFDBFF050EEA6A5325E96EE7
:100220005451EA22100EEFCFDBFF060EEA6A532587
:10023000E96E5451EA220B0EEFCFDBFF070EEA6A9C
:100240005325E96E5451EA220C0EEFCFDBFF080E66
:10025000EA6A5325E96E5451EA220D0EEFCFDBFF17
:10026000090EEA6A5325E96E5451EA220E0EEFCFC9
:10027000DBFF50510197080B01E001870151030B8F
:1002800000090CE1D9500F0FE96EDACFEAFFFC0E3E
:10029000D880EE54FF0EED5401E357D10D0EDBCFA5
:1002A00000F00E0EDBCF01F01851001811E11951CA
:1002B00001180EE10B0EDBCF02F00C0EDBCF03F0CA
:1002C0001A51021805E11B51031802E181EF16F0E3
:1002D000DF6A100EDF5C42E2DF50080DF3CFE9FF6A
:1002E000F4CFEAFF580EE926010EEA22030EE926B2
:1002F000000EEA22EF5030E0DF50080DF3CFE9FFA7
:10030000F4CFEAFF580EE926010EEA22EECF00F004
:10031000EFCF01F00D0EDB5000181EE10E0EDB508A
:1003200001181AE1DF50080DF3CFE9FFF4CFEAFF1F
:10033000580EE926010EEA22020EE926000EEA22F4
:10034000EFCF02F00A0E0101EA6A5325E96E54511B
:10035000EA22EF50025C02E0DF2ABBD7100EDF5C1E
:1003600002E281EF16F0DF6A100EDF5C12E2DF506E
:10037000080DF3CFE9FFF4CFEAFF580EE926010E8E
:10038000EA22030EE926000EEA22EF5002E0DF2AFD
:10039000EBD7100EDF5C5AE2DF50080DF3CFE9FF18
:1003A000F4CFEAFF580EE926010EEA220D0EDBCF4C
:1003B000EEFF0E0EDBCFEDFF0A0E0101EA6A5325B8
:1003C000E96E5451EA22EF50E66EDF50080DF3CF8C
:1003D000E9FFF4CFEAFF580EE926010EEA22020EE9
:1003E000E926000EEA22E552E750EF6EDF50080DD5
:1003F000F3CFE9FFF4CFEAFF580EE926010EEA2217
:10040000030EE926000EEA22030EEF6ECBEC74F029
:1004100020C000F021C001F022C002F023C003F090
:10042000DF50080DF3CFE9FFF4CFEAFF580EE926BD
:10043000010EEA22040EE926000EEA2220C0EEFF99
:1004400001C0EEFF02C0EEFF03C0EEFFD9500F0F58
:10045000E96EDACFEAFFFF0EEE1807E1FF0EED18A6
:1004600004E10101018101931CD0D9500F0FE96E05
:10047000DACFEAFFFE0EEE1806E1FF0EED1803E1FB
:10048000010101810DD0D9500F0FE96EDACFEAFFDB
:10049000FD0EEE1806E1FF0EED1803E101010191DA
:1004A000018353C1E9FF54C1EAFFEF50010801E3A2
:1004B000EED053C1E9FF54C1EAFFEF0601012BA1C1
:1004C00012D008CEE6FF090EE66E0E0EE66E04CEE2
:1004D000E6FF05CEE6FF06CEE6FF50EC51F0006EDB
:1004E000060EE15E00500E01086BDF6A01015551F6
:1004F000DF5C15E2DF50EA6A5325E96E5451EA22C7
:10050000EF50E66E0E010851082BEA6A090FE96EFA
:100510000E0EEA22E552E750EF6EDF2AE7D750C110
:1005200004FECBEC74F020C000FE21C001FE22C00E
:1005300002FE23C003FE320E006E286ED6CF23F0DB
:10054000B5EC79F01FC007FEA2D0090EDBCF00F09A
:100550000A0EDBCF01F01A51001802E037EF0DF060
:100560001B51011802E037EF0DF00F0EDBCF02F048
:10057000100EDBCF03F01851021802E037EF0DF038
:100580001951031802E037EF0DF0010EEA6A532506
:10059000E96E5451EA22EF50040B01E178D079C49E
:1005A000D5F30301020ED66F0B0EDBCFD7F30C0E83
:1005B000DBCFD8F30D0EDBCFD9F30E0EDBCFDAF3A2
:1005C0001AC1DBF31BC1DCF318C1DDF319C1DEF383
:1005D0000A0E0101EA6A5325E96E5451EA22EFCF6F
:1005E000DFF30301E06B300EE16F01010D0E176FB9
:1005F0000E0EDB50195D12E0E66A0D0EDBCFE6FF52
:100600000E0EDBCFE6FF0B0EDBCFE6FF0C0EDBCFD3
:10061000E6FF6CEC1DF0006E050E35D04D6B4D8B7A
:100620000D0EDBCF21F10E0EDBCF22F10B0EDBCF57
:1006300023F10C0EDBCF24F12BEC25F0DF6EFF084D
:1006400012E0DF500A0DF3CFE9FFF4CFEAFF600EAE
:10065000E926000EEA22040EE926000EEA22E9CF7E
:100660004EF1EACF4FF117C1E6FFD50EE66E030E4D
:10067000E66E4DC1E6FF4EC1E6FF4FC1E6FF50EC0E
:1006800051F0006E060EE15E0050010101850B0E77
:100690000101EA6A5325E96E5451EA22EF5002E063
:1006A000FFEF0CF00C0EEA6A5325E96E5451EA2272
:1006B000EF50300802E1E2EF0CF00C0EEA6A53252D
:1006C000E96E5451EA22EF50420A02E1DFEF0CF0EA
:1006D000020A02E1B5EF0CF0010A02E14EEF0CF064
:1006E000F20A02E13AEF0CF0010A02E100EF0CF02D
:1006F000030A02E1D2EF0BF0010A02E19DEF0BF0D9
:10070000A10A02E1D5EF0AF0B50A02E165EF09F0AE
:10071000070A02E13FEF09F0010A02E10BEF09F0DD
:10072000030A02E129EF08F0010A01E1DED1B00A73
:1007300002E081EF16F03AB362D0CBEC74F020C047
:1007400049F121C04AF122C04BF123C04CF1080EFF
:100750000101EA6A5325E96E5451EA22EFCF3CF1D8
:10076000090EEA6A5325E96E5451EA22EFCF3DF1B2
:10077000110EDB6A040EF36E110EDBCFF4FFF350A3
:10078000F45C18E2110EDB50020F0B0FEA6A5325DE
:10079000E96E5451EA22EF50E66E110EDB50EA6A20
:1007A0003E0FE96E010EEA22E552E750EF6E110EA0
:1007B000DB2AE0D73A833A91110EDB6A010EF36E21
:1007C000110EDBCFF4FFF350F45C02E381EF16F07F
:1007D000110EDB50110FEA6A5325E96E5451EA22DB
:1007E000EF50E66E110EDB50EA6A420FE96E010E21
:1007F000EA22E552E750EF6E110EDB2ADFD7080E32
:10080000EA6A5325E96E5451EA22EF503C5D0BE150
:10081000090EEA6A5325E96E5451EA22EF503D5D14
:1008200002E181EF16F03C513D1101E0BBD0110E09
:10083000DB6A040EF36E110EDBCFF4FFF350F45CB1
:100840002AE2110EDB500D0FEA6A5325E96E54516E
:10085000EA22EF50E66E110EDB50EA6A450FE96EB0
:10086000010EEA22E552E750EF6E110EDB50EA6A04
:10087000450FE96E010EEA22EF50E66E110EDB50D5
:10088000EA6A1D0FE96E010EEA22E552E750EF6EAB
:10089000110EDB2ACED7080EEA6A5325E96E5451B1
:1008A000EA22EFCF43F1090EEA6A5325E96E54516B
:1008B000EA22EFCF44F143C121F144C122F11AC130
:1008C00023F11BC124F12BEC25F001013B6FFF0E3E
:1008D0003B5D01E005D18D0E296F21BF299169ECA7
:1008E00026F001013B6FFF0E3B5D01E3F9D0110ED5
:1008F000DB6A010EF36E110EDBCFF4FFF350F45CF4
:100900002BE2110EDB50110F0101EA6A5325E96E4B
:100910005451EA22EF50E66E3B510A0DF3CFE9FF46
:10092000F4CFEAFF600EE926000EEA22090EE9265E
:10093000000EEA22E9CF00F0EACF01F0110EDB5001
:100940000F01E924E96E000EEA20EA6EE552E75055
:10095000EF6E110EDB2ACDD70A0EE66EE66A0101B4
:100960003B510A0D0E019C51F324006E9D51F42061
:10097000016E00C0E6FFE66E01013B510A0DF3CFA8
:1009800002F0F4CF03F0600E0226000E032202C034
:10099000E6FF03C0E6FF0CEC71F0046E060EE15EAC
:1009A00004509ED0590EE66EC00EE66EE2EC71F079
:1009B000E552E55201010B0E176FE850172BEA6A5A
:1009C000D50FE96E030EEA22EF6A1751172BEA6A78
:1009D000D50FE96E030EEA22110EEF6EDB6A040EEC
:1009E000F36E110EDBCFF4FFF350F45C2AE2110E2C
:1009F000DB500D0FEA6A5325E96E5451EA22EF509D
:100A0000E66E110EDB50EA6A450FE96E010EEA222E
:100A1000E552E750EF6E110EDB50EA6A450FE96EC2
:100A2000010EEA22EF50E66E1751172BEA6AD50F36
:100A3000E96E030EEA22E552E750EF6E110EDB2A53
:100A4000CED7080EEA6A5325E96E5451EA22EFCF59
:100A500043F1090EEA6A5325E96E5451EA22EFCFB9
:100A600044F11751172BEA6AD50FE96E030EEA22FB
:100A700043C1EFFF1751172BEA6AD50FE96E030E3A
:100A8000EA2244C1EFFF110EDB6A010EF36E110E74
:100A9000DBCFF4FFF350F45C17E2110EDB50110FC3
:100AA000EA6A5325E96E5451EA22EF50E66E175177
:100AB000172BEA6AD50FE96E030EEA22E552E750DA
:100AC000EF6E110EDB2AE1D7E66AE66A3C0EE66EAF
:100AD000010EE66E2BEC2FF0E552E552E552E552A1
:100AE00001013A833A8181EF16F0020E305D02E097
:100AF00081EF16F00D0EEA6A5325E96E5451EA2291
:100B0000EF5001E0ADD10B0E176FE850172BEA6ADA
:100B1000D50FE96E030EEA22EF6A1751172BEA6A26
:100B2000D50FE96E030EEA22A10EEF6EDF6A040E06
:100B3000DF5C27E20E0EDF24EA6A5325E96E54518A
:100B4000EA22EF50E66EDF50EA6A1D0FE96E010EF1
:100B5000EA22E552E750EF6E0E0EDF24EA6A5325D3
:100B6000E96E5451EA22EF50E66E1751172BEA6AEC
:100B7000D50FE96E030EEA22E552E750EF6EDF2A49
:100B8000D6D7FEEC25F0E76E120EE7CFDBFFDB5089
:100B9000FF0801E0ACD00101216B010EDF6E100EE9
:100BA000DF5C0DE2DFCF22F12BEC25F0E76E120EB9
:100BB000E7CFDBFFDB50FF0802E0DF2AF0D7100EA3
:100BC000DF5C01E38AD0DF50EA6A660FE96E0E0E41
:100BD000EA220E0EDBCFEFFF01011751172BEA6A55
:100BE000D50FE96E030EEA22DFCFEFFF9D0E296FCE
:100BF0001AC123F11BC124F169EC26F0E76E120E35
:100C0000E7CFDBFF100EF36E120EDBCFF4FFF350D5
:100C1000F45C5CE2DF6A010EDF5C29E2120EDF2485
:100C20000101EA6A5325E96E5451EA22EF50E66E5B
:100C3000120EDB500A0DF3CFE9FFF4CFEAFF600E8E
:100C4000E926000EEA22090EE926000EEA22E9CF83
:100C500000F0EACF01F0DF500F01E924E96E000E49
:100C6000EA20EA6EE552E750EF6EDF2AD4D7100E85
:100C7000F36E120EDBCFF4FFF350F45C01E3CBD044
:100C80000A0EE66EE66A120EDB500A0D0E019C514A
:100C9000F324006E9D51F420016E00C0E6FFE66E65
:100CA000120EDB500A0DF3CF02F0F4CF03F0600E0A
:100CB0000226000E032202C0E6FF03C0E6FF0CEC92
:100CC00071F0046E060EE15E0450A5D0DF50EA6AB2
:100CD000660FE96E0E0EEA22EF6801011751172B1D
:100CE000EA6AD50FE96E030EEA22EF6894D0120E7D
:100CF000DB500A0DF3CFE9FFF4CFEAFF600EE926DF
:100D0000000EEA22020EE926000EEA22EF5072E1FE
:100D10000E0EDB50E76E130EE7CFDBFFDB502AE051
:100D2000130EDB50EA6A660FE96E0E0EEA22EFCF71
:100D300000F0120EDB500A0DF3CFE9FFF4CFEAFF0B
:100D4000600EE926000EEA22020EE926000EEA22D3
:100D5000010EE926000EEA22EF50005C0BE0130EB4
:100D6000DB50EA6A660FE96E0E0EEA22130EEFCF31
:100D7000DBFFD4D7130EDB501CE1120EDB500A0D43
:100D8000F3CFE9FFF4CFEAFF600EE926000EEA2276
:100D9000020EE926000EEA22010EE926000EEA22E2
:100DA000EF50EA6A660FE96E0E0EEA220E0EDBCFF6
:100DB000EFFF120EDB500A0DF3CFE9FFF4CFEAFF8D
:100DC000600EE926000EEA22020EE926000EEA2253
:100DD000010EE926000EEA22EF50E66E01011751DE
:100DE000172BEA6AD50FE96E030EEA22E552E750A7
:100DF000EF6E11D0120EDB500A0DF3CFE9FFF4CFE6
:100E0000EAFF600EE926000EEA22080EE926000E2F
:100E1000EA22EF6AC0D6E66AE66AD9500D0FE66E9E
:100E2000000EDA20E66E2BEC2FF0E552E552E5528B
:100E3000E55201012B832B952B97CBEC74F020C04E
:100E40002CF121C02DF122C02EF123C02FF1120E62
:100E500001012C5F7A0E2D5B000E2E5B2F5B32D2D0
:100E6000DF6A040EDF5C14E20E0EDF24EA6A53250B
:100E7000E96E5451EA22EF50E66EDF50EA6A1D0F28
:100E8000E96E010EEA22E552E750EF6EDF2AE9D75C
:100E9000FEEC25F0E76E120EE7CFDBFFDB50FF081C
:100EA00002E181EF16F00F0EDF6EDF5000086AE2FC
:100EB000140EDFCFDBFF150EDB6A140EDB500008CB
:100EC0005FE2140EDB50EA6A660FE96E0E0EEA224C
:100ED000EF50FF0855E0140EDB50EA6A660FE96E2A
:100EE0000E0EEA22EFCF00F0120EDB500A0DF3CF08
:100EF000E9FFF4CFEAFF600EE926000EEA22020EB7
:100F0000E926000EEA22010EE926000EEA22EF5041
:100F1000005C25E1DF50EA6A660FE96E0E0EEA22F8
:100F2000EF680101216BDFCF22F12BEC25F0E76E9A
:100F3000160EE7CFDBFFDB50FF0822E0160EDB507A
:100F40000A0DF3CFE9FFF4CFEAFF600EE926000EA9
:100F5000EA22080EE926000EEA22EF6A11D0140EEA
:100F6000DB50EA6A660FE96E0E0EEA22140EEFCF2E
:100F7000DBFF150EDBCFF3FFDB2AF35010089DE2F9
:100F8000DF0693D7120EDB500A0DF3CFE9FFF4CF43
:100F9000EAFF600EE926000EEA22020EE926000EA4
:100FA000EA22010EE926000EEA22EF50EA6A660FF5
:100FB000E96E0E0EEA22EF68120EDB500A0DF3CF37
:100FC000E9FFF4CFEAFF600EE926000EEA22080EE0
:100FD000E926000EEA22EF6A0A0EE66EE66A120EB3
:100FE000DB500A0D0E019C51F324006E9D51F4203C
:100FF000016E00C0E6FFE66E120EDB500A0DF3CF65
:1010000002F0F4CF03F0600E0226000E032202C0AD
:10101000E6FF03C0E6FF0CEC71F0046E060EE15E25
:10102000045001012B832B952B97CBEC74F020C03F
:101030002CF121C02DF122C02EF123C02FF1120E70
:1010400001012C5F7A0E2D5B000E2E5B2F5B81EF72
:1010500016F0190EDB6ADF6A040EDF5C14E20D0E77
:10106000DF24EA6A5325E96E5451EA22EF50E66E16
:10107000DF50EA6A1D0FE96E010EEA22E552E750E1
:10108000EF6EDF2AE9D7BF0E296F110EEA6A5325EA
:10109000E96E5451EA22EF50FF0848E1FEEC25F0DA
:1010A000E76E170EE7CFDBFF100EF36E170EDBCFE8
:1010B000F4FFF350F45C02E381EF16F019C122F162
:1010C000010EF36E180EF3CFDBFFDF6A100EDF5C4C
:1010D00014E2180EDBCF21F12BEC25F0FF0809E11B
:1010E000180EDB50800F0101216F2BEC25F0FF085B
:1010F00004E0180EDB2ADF2AE9D7100EDF5C1FE2BE
:10110000180EDB50006E016AD890015004E6800E84
:10111000005C000E015804E2180EDBCF21F10FD065
:10112000010EF36E190EF3CFDBFF09D0216B110E08
:10113000EA6A5325E96E5451EA22EFCF22F11AC12F
:1011400023F11BC124F169EC26F0E76E170EE7CFFF
:10115000DBFF0301020ED56F21C1D6F322C1D7F305
:10116000190EDBCFD8F3DF6A010EDF5C14E2DF502B
:10117000EA6AAD0FE96E030EEA22EF50E66E040E46
:10118000DF24EA6AD50FE96E030EEA22E552E75042
:10119000EF6EDF2AE9D719C1DAF30101060E176FE6
:1011A000010EE66E170EDB500A0DF3CFE9FFF4CF08
:1011B000EAFF600EE926000EEA22040EE926000E80
:1011C000EA22E9CF00F0EACF01F0E9CFE6FFEACF6B
:1011D000E6FF53EC1FF0E552E552E552100EF36EB8
:1011E000170EDBCFF4FFF350F45C02E381EF16F04F
:1011F0000A0EE66EE66A170EDB500A0D0E019C51D0
:10120000F324006E9D51F420016E00C0E6FFE66EEF
:10121000170EBDEF14F00B0E176FE850172BEA6A8C
:10122000D50FE96E030EEA22EF6A1751172BEA6A0F
:10123000D50FE96E030EEA22A30EEF6EDF6A100EE1
:10124000DF5C14E2DF50EA6A660FE96E0E0EEA22F6
:10125000EF50E66E1751172BEA6AD50FE96E030EB1
:10126000EA22E552E750EF6EDF2AE9D7E66AE66A3E
:10127000D9500D0FE66E000EDA2069EF10F0DF6A2C
:10128000100EDF5C14E20D0EDF24EA6A5325E96ECE
:101290005451EA22EF50E66EDF50EA6A660FE96EBB
:1012A0000E0EEA22E552E750EF6EDF2AE9D7CBECCB
:1012B00074F020C02CF121C02DF122C02EF123C0EA
:1012C0002FF101012A8181EF16F05651010802E346
:1012D00081EF16F00E0EF36E1A0EF3CFDBFFDB502C
:1012E000EA6A5325E96E5451EA221B0EEFCFDBFF69
:1012F000DF6A020EDF5C21E21A0EDB28DF24010127
:10130000EA6A5325E96E5451EA22EF50E66E0E0E5A
:10131000016ADB34FE0B0136006E760E00260E0EDF
:101320000122DF500F010024E96E000E0120EA6E59
:10133000E552E750EF6EDF2ADCD71A0EDB0401011D
:10134000EA6A5325E96E5451EA22EF50070B016E09
:10135000010E015204E0E846FE0B0106FCE1006EBE
:101360000E0EDB50F80BE842E842E842EA6A540FFE
:10137000E96E0E0EEA220050EF12DF6A040EDF5C07
:1013800014E2DF500101EA6A5125E96E5251EA2266
:10139000EF50E66EDF50EA6A1D0FE96E010EEA2299
:1013A000E552E750EF6EDF2AE9D70101216B1A0EF3
:1013B000DB04EA6A5325E96E5451EA22EFCF22F1A9
:1013C0008F0E296F1AC123F11BC124F1FEEC25F009
:1013D000DF6E100EDF5C4FE2DF500A0DF3CFE9FF46
:1013E000F4CFEAFF600EE926000EEA22020EE9269B
:1013F000000EEA22EECF00F0EFCF01F00101215103
:101400000001001804E1010122510001011823E04C
:10141000DF500A0DF3CFE9FFF4CFEAFF600EE926B3
:10142000000EEA22020EE926000EEA2221C1EEFF9A
:1014300022C1EDFFDF500A0DF3CFE9FFF4CFEAFF41
:10144000600EE926000EEA22080EE926000EEA22C6
:10145000EF8601012A87DF500A0DF3CFE9FFF4CFB1
:10146000EAFF600EE926000EEA22080EE926000EC9
:10147000EA22EF8208D069EC26F0006E100E005CC4
:1014800002E201012A871A0EDB040101EA6A5325F0
:10149000E96E5451EA22EF50F36E1B0EDB50F35C01
:1014A00075E12BA114D008CEE6FF090EE66E0E0EF4
:1014B000E66E04CEE6FF05CEE6FF06CEE6FF50EC74
:1014C00051F0006E060EE15E005001012B910E01FD
:1014D000010E096F020E0A6F1AC10BFE1BC10CFE32
:1014E000FD0E0D6F0E691AC10FFE1BC110FE18C153
:1014F00011FE19C112FE01012751272B0E01136F96
:10150000146BA40E156F0D0E086FE850082BEA6AD5
:10151000090FE96E0E0EEA2219C1EFFF0851082BE0
:10152000EA6A090FE96E0E0EEA221B0EDBCFEFFF0F
:10153000DF6A020EDF5C14E2DF50EA6A540FE96EE4
:101540000E0EEA22EF50E66E0851082BEA6A090FE8
:10155000E96E0E0EEA22E552E750EF6EDF2AE9D778
:10156000046B0485048F320E006E286ED6CF23F0F4
:10157000B5EC79F01FC007FECBEC74F020C000FE84
:1015800021C001FE22C002FE23C003FE01012A8306
:101590002A85CBEC74F020C02CF121C02DF122C0A3
:1015A0002EF123C02FF181EF16F01C0EDB6A040E22
:1015B000F36E1C0EDBCFF4FFF350F45C18E21C0E4C
:1015C000DB500B0F020FEA6A5325E96E5451EA22F1
:1015D000EF50E66E1C0EDB50EA6A1D0FE96E010E3D
:1015E000EA22E552E750EF6E1C0EDB2AE0D78D0EA3
:1015F000296F110EEA6A5325E96E5451EA22EF5021
:10160000800B01E02991110EEA6A5325E96E5451CD
:10161000EA22EFCF21F1120EEA6A5325E96E545106
:10162000EA22EFCF22F11AC123F11BC124F12BECE6
:1016300025F001013B6FFF0E3B5D13E03B510A0DAE
:10164000F3CFE9FFF4CFEAFF600EE926000EEA22AD
:10165000080EE926000EEA22EFCF29F12985298715
:1016600004D08D0E296F21BF299169EC26F001016C
:101670003B6FFF0E3B5D5DE21C0EDB6A010EF36EFD
:101680001C0EDBCFF4FFF350F45C2BE21C0EDB509E
:10169000130F0101EA6A5325E96E5451EA22EF5013
:1016A000E66E3B510A0DF3CFE9FFF4CFEAFF600E7F
:1016B000E926000EEA22090EE926000EEA22E9CF09
:1016C00000F0EACF01F01C0EDB500F01E924E96EB7
:1016D000000EEA20EA6EE552E750EF6E1C0EDB2AA0
:1016E000CDD70A0EE66EE66A01013B510A0D0E01E6
:1016F0009C51F324006E9D51F420016E00C0E6FF62
:10170000E66E01013B510A0DF3CF02F0F4CF03F076
:10171000600E0226000E032202C0E6FF03C0E6FFB1
:101720000CEC71F0046E060EE15E045001013A818A
:1017300001D03A913A9381EF16F00D0EEA6A5325E3
:10174000E96E5451EA221D0EEFCFDBFF0E0EEA6A5E
:101750005325E96E5451EA221E0EEFCFDBFF0F0E28
:10176000EA6A5325E96E5451EA221F0EEFCFDBFFE0
:10177000100EEA6A5325E96E5451EA22200EEFCF8B
:10178000DBFFD9501D0FE96EDACFEAFFEECFE6FF9F
:10179000EECFE6FFEECFE6FFEFCFE6FFAFEC35F0A2
:1017A0006CEF10F00D0EEA6A5325E96E5451EA22EF
:1017B000EFCF32F10E0EEA6A5325E96E5451EA2258
:1017C000EFCF33F10F0EEA6A5325E96E5451EA2246
:1017D000EFCF34F1100EEA6A5325E96E5451EA2234
:1017E000EFCF35F1316B3181CBEC74F020C036F1A5
:1017F00021C037F122C038F123C039F181EF16F052
:10180000800E006E0D0EEA6A5325E96E5451EA22ED
:10181000EF50EA6A340FE96E0E0EEA22EF50005CD8
:1018200002E381EF16F00B0E176FE850172BEA6AF0
:10183000D50FE96E030EEA22EF6A1751172BEA6AF9
:10184000D50FE96E030EEA22B30EEF6E0D0EEA6AB3
:101850005325E96E5451EA22EF50E66E1751172BCB
:10186000EA6AD50FE96E030EEA22E552E750EF6E01
:1018700062EF10F00D0EEA6A5325E96E5451EA2228
:10188000EFCF00F03151F80BE842E842E842005C4B
:1018900002E081EF16F0318581EF16F00D0EEA6A55
:1018A0005325E96E5451EA22EF500401755D02E0C0
:1018B00081EF16F00101176B79C4D5F30301020E15
:1018C000D66F1AC1D7F31BC1D8F3080E0101EA6A1B
:1018D0005325E96E5451EA22EFCFD9F3090EEA6A93
:1018E0005325E96E5451EA22EFCFDAF31AC1DBF344
:1018F0001BC1DCF318C1DDF319C1DEF32751272B1F
:101900000301DF6FE06B420EE16F01014D6B4D8B08
:10191000080EEA6A5325E96E5451EA22EFCF21F10D
:10192000090EEA6A5325E96E5451EA22EFCF22F1FB
:101930002BEC25F0DF6EFF0EDF5C02E181EF16F08D
:10194000DF500A0DF3CFE9FFF4CFEAFF600EE9267E
:10195000000EEA22040EE926000EEA22E9CF4EF13B
:10196000EACF4FF10D0EE66ED7D00D0EEA6A532581
:10197000E96E5451EA22EF500401755D02E081EFF7
:1019800016F0CBEC74F020C036F121C037F122C044
:1019900038F123C039F1010131830E0EEA6A532573
:1019A000E96E5451EA22EF501F0BF36EF346F346F3
:1019B000F346070E3115F310316F81EF16F0289DB5
:1019C00081EF16F00A0EEA6A5325E96E5451EA22B5
:1019D000EF500401775D0EE10D0EDBCF00F00E0E2F
:1019E000DBCF01F001012551001804E12651011857
:1019F00001E128970D0EDB50800881EF16F00B0EE9
:101A0000555D086F0B0E5325066F000E5421076FAE
:101A10000B0EDBCF02F10C0EDBCF03F1080EEA6AEE
:101A20005325E96E5451EA22EF50FF0810E1090EE8
:101A3000EA6A5325E96E5451EA22EF50FF0807E1A4
:101A400050AF05D051C104F152C105F107D0018F4B
:101A5000080E5325046F000E5421056F018D0851A7
:101A6000000802E381EF16F0288581EF16F053C1DC
:101A7000E9FF54C1EAFFEF50000802E381EF16F0DE
:101A800053C1E9FF54C1EAFFEF06176BDF6A5551F6
:101A9000DF5C14E2DF50EA6A5325E96E5451EA2212
:101AA000EF50E66E1751172BEA6AD50FE96E030E59
:101AB000EA22E552E750EF6EDF2AE9D7100EDB503D
:101AC000195D38E10301E05135E1300EE15D32E1AD
:101AD00001014D6B4D8B0F0EDBCF21F1100EDBCFD3
:101AE00022F12BEC25F0DF6EFF0802E181EF16F00A
:101AF000DF500A0DF3CFE9FFF4CFEAFF600EE926CD
:101B0000000EEA22040EE926000EEA22E9CF4EF189
:101B1000EACF4FF117C1E6FFD50EE66E030EE66E73
:101B20004DC1E6FFE9CFE6FFEACFE6FF50EC51F00A
:101B300061EF16F001015051080B01E0010EE66E55
:101B40000F0EDBCFE6FF100EDBCFE6FF090EDBCF7B
:101B5000E6FF0A0EDBCFE6FF6CEC1DF0006E050E13
:101B600063EF16F0040EF36E210EF3CFDBFFDB50B4
:101B7000040FEA6A5325E96E5451EA22EF505D08DA
:101B800002E081EF16F028A181EF16F053C1E9FFC2
:101B900054C1EAFFEFCF23F1010EEA6A5325E96E43
:101BA0005451EA22EFCF24F1020EEA6A5325E96E7E
:101BB0005451EA22EFCF21F1030EEA6A5325E96E70
:101BC0005451EA22EFCF22F1210EDB50EA6A53256D
:101BD000E96E5451EA22EF50FF0802E081EF16F05F
:101BE000210EDB28EA6A5325E96E5451EA22220EBF
:101BF000EFCFDBFF010E0B5D02E381EF16F0D95052
:101C0000220FE96EDACFEAFFEF50300BE842E842EC
:101C1000E842E842010802E281EF16F00B510B0D99
:101C2000F3CFE9FFF4CFEAFF0C0EE926010EEA221A
:101C300075C4EFFF0B510B0DF3CFE9FFF4CFEAFFB3
:101C40000C0EE926010EEA22070EE926000EEA2212
:101C500009C1EFFF0B510B0DF3CFE9FFF4CFEAFF02
:101C60000C0EE926010EEA22080EE926000EEA22F1
:101C70000AC1EFFF0B510B0DF3CFE9FFF4CFEAFFE1
:101C80000C0EE926010EEA22050EE926000EEA22D4
:101C900023C1EEFF24C1EDFF0B510B0DF3CFE9FF84
:101CA000F4CFEAFF0C0EE926010EEA22090EE9261E
:101CB000000EEA22EF6A0B510B0DF3CFE9FFF4CFD0
:101CC000EAFF0C0EE926010EEA22090EE926000EB3
:101CD000EA22EF8CD950220FE96EDACFEAFFEF50FB
:101CE000060BE842006E0B510B0DF3CFE9FFF4CF6A
:101CF000EAFF0C0EE926010EEA22090EE926000E83
:101D0000EA220050030BF36EFC0EEF14F310EF6E9B
:101D1000D950220FE96EDACFEAFFEF50080B0FE03F
:101D20000B510B0DF3CFE9FFF4CFEAFF0C0EE926C0
:101D3000010EEA22090EE926000EEA22EF86D950AA
:101D4000220FE96EDACFEAFFEF50300BE842E842AB
:101D5000E842E84201080FE30B510B0DF3CFE9FF16
:101D6000F4CFEAFF0C0EE926010EEA22090EE9265D
:101D7000000EEA22EF8ADF6A040EDF5C24E2DF5005
:101D80000101EA6A0425E96E0551EA22EF50E66E88
:101D90000B510B0DF3CFE9FFF4CFEAFF0C0EE92650
:101DA000010EEA22EE52E9CF00F0EACF01F0DF5057
:101DB0000F01E924E96E000EEA20EA6EE552E750D1
:101DC000EF6EDF2AD9D7DF6A010EDF5C2AE2210E2F
:101DD000DB50060FDF240101EA6A5325E96E5451F6
:101DE000EA22EF50E66E0B510B0DF3CFE9FFF4CF73
:101DF000EAFF0C0EE926010EEA220A0EE926000E81
:101E0000EA22E9CF00F0EACF01F0DF500F01E92428
:101E1000E96E000EEA20EA6EE552E750EF6EDF2A27
:101E2000D3D701010B2B81EF16F053C1E9FF54C149
:101E3000EAFFEF50070A02E166EF16F0040A02E13A
:101E40001EEF13F0010A01E1ABD2030A02E081EFB9
:101E500016F0240EDB6A04017651010802E281EFDC
:101E600016F0010128A381EF16F0DF6A040EDF5C93
:101E700013E2DF50EA6A5125E96E5251EA22EF502F
:101E8000E66EDF50EA6A1D0FE96E010EEA22E552A6
:101E9000E750EF6EDF2AEAD7FEEC25F0E76E230E5F
:101EA000E7CFDBFFDB50FF0870E0230EDB500A0DAD
:101EB000F3CFE9FFF4CFEAFF600EE926000EEA2235
:101EC000080EE926000EEA22EF50200B5EE0230EFA
:101ED000DB5001011C5D59E0230EDB500A0DF3CFEE
:101EE000E9FFF4CFEAFF600EE926000EEA22080EB1
:101EF000E926000EEA22EF50080B47E0230EDB50E4
:101F00000A0DF3CFE9FFF4CFEAFF600EE926000ED9
:101F1000EA22020EE926000EEA22EECF21F1EDCFF1
:101F200022F104017651010802E281EF16F0DF6A26
:101F3000010EDF5C01E3F0D1020EDF240101EA6A49
:101F40005325E96E5451EA22EF50E66E230EDB5022
:101F50000A0DF3CFE9FFF4CFEAFF600EE926000E89
:101F6000EA22090EE926000EEA22E9CF00F0EACFC4
:101F700001F0DF500F01E924E96E000EEA20EA6E5D
:101F8000E552E750EF6EDF2AD3D7040176510008FF
:101F900002E281EF16F00101A70E296F1AC123F1A9
:101FA0001BC124F169EC26F0E76E230EE7CFDBFFBF
:101FB000DB50FF0801E121D1DF6A010EDF5C29E27D
:101FC000020EDF240101EA6A5325E96E5451EA2228
:101FD000EF50E66E230EDB500A0DF3CFE9FFF4CF8E
:101FE000EAFF600EE926000EEA22090EE926000E3D
:101FF000EA22E9CF00F0EACF01F0DF500F01E92437
:10200000E96E000EEA20EA6EE552E750EF6EDF2A35
:10201000D4D7010E0101EA6A5325E96E5451EA2230
:10202000EF50400B01E1C4D0020E305D57E00B0EC3
:10203000176FE850172BEA6AD50FE96E030EEA22F4
:10204000EF6A1751172BEA6AD50FE96E030EEA22E1
:10205000A00EEF6E1751172BEA6AD50FE96E030E2B
:10206000EA22EF6ADF6A040EDF5C14E2DF50EA6AFC
:102070001D0FE96E010EEA22EF50E66E1751172B85
:10208000EA6AD50FE96E030EEA22E552E750EF6ED9
:10209000DF2AE9D7DF6A010EDF5C14E2DF50EA6A6B
:1020A000AD0FE96E030EEA22EF50E66E1751172BC3
:1020B000EA6AD50FE96E030EEA22E552E750EF6EA9
:1020C000DF2AE9D7216B226BE66AE66A210EE66E0B
:1020D000010EE66E2BEC2FF0E55260D1216B010E64
:1020E000F36E260EF3CFDBFF100EF36E260EDBCF62
:1020F000F4FFF350F45C32E2260EDBCF22F12BEC3E
:1021000025F0E76E250EE7CFDBFFDB50FF0823E16C
:102110000101216B260EDBCF22F1DB50EA6A660F4C
:10212000E96E0E0EEA22EF6A2B832B952B97CBECF0
:1021300074F020C02CF121C02DF122C02EF123C05B
:102140002FF1120E01012C5F7A0E2D5B000E2E5B1B
:102150002F5B2A8103D0260EDB2AC6D7260EDB5042
:10216000100855E10101226B010EDF6EDF50006E99
:10217000016AD890015004E6800E005C000E015800
:1021800013E2DFCF21F12BEC25F0FF080BE1800EED
:10219000DF240101216F2BEC25F0FF0803E1DFCFE5
:1021A00021F102D0DF2AE2D7DF507F0830E225D0CC
:1021B00019C122F1010EDF6EDF50006E016AD89066
:1021C000015004E6800E005C000E015813E2DFCFE0
:1021D00021F12BEC25F0FF080BE1800EDF2401013B
:1021E000216F2BEC25F0FF0803E1DFCF21F102D0B6
:1021F000DF2AE2D7DF507F080AE2010EF36E240ED9
:10220000F3CFDBFF0101FE0E216F226985D00101B2
:10221000BF0E296F010EEA6A5325E96E5451EA2276
:10222000EF50010B02E12991218F240EDB5074E164
:102230001AC123F11BC124F169EC26F0E76E230ECD
:10224000E7CFDBFF100EF36E230EDBCFF4FFF3506E
:10225000F45C62E2230EDB500A0DF3CFE9FFF4CF0A
:10226000EAFF600EE926000EEA22080EE926000EBB
:10227000EA22EF88DF6A010EDF5C29E2020EDF242A
:102280000101EA6A5325E96E5451EA22EF50E66EE5
:10229000230EDB500A0DF3CFE9FFF4CFEAFF600E07
:1022A000E926000EEA22090EE926000EEA22E9CF0D
:1022B00000F0EACF01F0DF500F01E924E96E000ED3
:1022C000EA20EA6EE552E750EF6EDF2AD4D70A0E15
:1022D000E66EE66A230EDB500A0D0E019C51F324D4
:1022E000006E9D51F420016E00C0E6FFE66E230EE5
:1022F000DB500A0DF3CF02F0F4CF03F0600E02269C
:10230000000E032202C0E6FF03C0E6FF0CEC71F0F2
:10231000046E060EE15E04500301020ED56F21C16A
:10232000D6F322C1D7F3240EDBCFD8F3DF6A010E38
:10233000DF5C14E2DF50EA6AAD0FE96E030EEA22B9
:10234000EF50E66E040EDF24EA6AD50FE96E030E45
:10235000EA22E552E750EF6EDF2AE9D719C1DAF336
:102360000101060E176F010EE66E230EDB500A0DFB
:10237000F3CFE9FFF4CFEAFF600EE926000EEA2270
:10238000040EE926000EEA22E9CF00F0EACF01F0C0
:10239000E9CFE6FFEACFE6FF53EC1FF0E5521CD190
:1023A000030EEA6A5325E96E5451EA22EF5001E028
:1023B00016D1010EEA6A5325E96E5451EA22EFCF95
:1023C00018F1020EEA6A5325E96E5451EA22EFCF62
:1023D00019F118510CE1440EE66EC00EE66EE2EC07
:1023E00071F0E552E5520101010E306F0AD02F0E57
:1023F000E66EC00EE66EE2EC71F0E552E5520101C8
:10240000306B3051030BF36EF346F90E0015F310E9
:10241000006F010EE66EE66AAACEE6FFABCEE6FFDF
:10242000300EE66E010EE66E0CEC71F0006E060EDC
:10243000E15E00501A0EE66E010EE66E180EE66EB4
:10244000010EE66E24EC50F0E552E552E552E552FD
:1024500001012883BF0E296FDF6A040EDF5C13E2DF
:10246000DF50EA6A5125E96E5251EA22EF50E66EDA
:10247000DF50EA6A1D0FE96E010EEA22E552E750CD
:10248000EF6EDF2AEAD7216B050EEA6A5325E96E63
:102490005451EA22EFCF22F11AC123F11BC124F1DA
:1024A00069EC26F001011C6FDF6A010EDF5C28E297
:1024B000040EDF240101EA6A5325E96E5451EA2231
:1024C000EF50E66E1C510A0DF3CFE9FFF4CFEAFF9F
:1024D000600EE926000EEA22090EE926000EEA2225
:1024E000E9CF00F0EACF01F0DF500F01E924E96EF7
:1024F000000EEA20EA6EE552E750EF6EDF2AD5D7EC
:1025000001012B892B9B2B9DCBEC74F020C02CF16F
:1025100021C02DF122C02EF123C02FF1020EE66E54
:10252000E66A96CEE6FF97CEE6FF1A0EE66E010E3D
:10253000E66E0CEC71F0006E060EE15E0050020ECD
:10254000E66EE66AA0CEE6FFA1CEE6FF180EE66EC6
:10255000010EE66E0CEC71F0006E060EE15E0050AE
:10256000010EE66EE66AA2CEE6FFA3CEE6FF1C0EE3
:10257000E66E010EE66E0CEC71F0006E060EE15E8A
:1025800000500A0EE66EE66A01011C510A0D0E01AA
:102590009C51F324006E9D51F420016E00C0E6FFB3
:1025A000E66E01011C510A0DF3CF02F0F4CF03F0E7
:1025B000600E0226000E032202C0E6FF03C0E6FF03
:1025C0000CEC71F0046E060EE15E04500D0EE66E2A
:1025D000C00EE66EE2EC71F0E552E55292D31C6952
:1025E0001A691B69216922691A0EE66E010EE66EF0
:1025F000210EE66E010EE66E24EC50F0E552E55237
:10260000E552E552010EE66EE66AA2CEE6FFA3CEE3
:10261000E6FF1C0EE66E010EE66E0CEC71F0006E2D
:10262000060EE15E0050020EE66EE66A96CEE6FF0A
:1026300097CEE6FF1A0EE66E010E40D328A361D3B3
:10264000DF6A040EDF5C13E2DF50EA6A5125E96EAF
:102650005251EA22EF50E66EDF50EA6A1D0FE96E32
:10266000010EEA22E552E750EF6EDF2AEAD7FEECD0
:1026700025F0E76E270EE7CFDBFFDB50FF0801E117
:1026800040D3270EDB500A0DF3CFE9FFF4CFEAFF6A
:10269000600EE926000EEA22080EE926000EEA2264
:1026A000EF50200B01E12DD3270EDB5001011C5D03
:1026B00001E178D1270EDB500A0DF3CFE9FFF4CF0B
:1026C000EAFF600EE926000EEA22020EE926000E5D
:1026D000EA22EF5001E030D1020E305D01E0D5D0AA
:1026E0000F0EDF6EDF5000086AE2280EDFCFDBFF3F
:1026F000290EDB6A280EDB5000085FE2280EDB5053
:10270000EA6A660FE96E0E0EEA22EF50FF0855E006
:10271000280EDB50EA6A660FE96E0E0EEA22EFCF52
:1027200000F0270EDB500A0DF3CFE9FFF4CFEAFFEC
:10273000600EE926000EEA22020EE926000EEA22C9
:10274000010EE926000EEA22EF50005C25E1DF5081
:10275000EA6A660FE96E0E0EEA22EF680101216B4C
:10276000DFCF22F12BEC25F0E76E2A0EE7CFDBFF5F
:10277000DB50FF0822E02A0EDB500A0DF3CFE9FF01
:10278000F4CFEAFF600EE926000EEA22080EE926E1
:10279000000EEA22EF6A11D0280EDB50EA6A660FBB
:1027A000E96E0E0EEA22280EEFCFDBFF290EDBCFFB
:1027B000F3FFDB2AF35010089DE2DF0693D7270EC4
:1027C000DB500A0DF3CFE9FFF4CFEAFF600EE926F4
:1027D000000EEA22020EE926000EEA22010EE92688
:1027E000000EEA22EF50EA6A660FE96E0E0EEA2248
:1027F000EF68270EDB500A0DF3CFE9FFF4CFEAFFB5
:10280000600EE926000EEA22080EE926000EEA22F2
:10281000EF6A0A0EE66EE66A270EDB500A0D0E011D
:102820009C51F324006E9D51F420016E00C0E6FF20
:10283000E66E270EDB500A0DF3CF02F0F4CF03F063
:10284000600E0226000E032202C0E6FF03C0E6FF70
:102850000CEC71F0046E060EE15E045001012B8356
:102860002B952B97CBEC74F020C02CF121C02DF1CF
:1028700022C02EF123C02FF1120E01012C5F7A0E1F
:102880002D5B000E2E5B2F5B57D00B0E176FE850A1
:10289000172BEA6AD50FE96E030EEA22EF6A175189
:1028A000172BEA6AD50FE96E030EEA22A00EEF6E2F
:1028B0001751172BEA6AD50FE96E030EEA22010EB3
:1028C000EF6EDF6A040EDF5C29E2270EDB500A0D93
:1028D000F3CFE9FFF4CFEAFF600EE926000EEA220B
:1028E000040EE926000EEA22E9CF00F0EACF01F05B
:1028F000DF500F01E924E96E000EEA20EA6EEF5086
:10290000E66E01011751172BEA6AD50FE96E030E27
:10291000EA22E552E750EF6EDF2AD4D7216B226B13
:10292000E66AE66A210EE66E010EE66E2BEC2FF0EB
:10293000E552E552E552E552270EDB500A0DF3CF82
:10294000E9FFF4CFEAFF600EE926000EEA22080E46
:10295000E926000EEA22EF6A0A0EE66EE66A270E04
:10296000DB500A0D0E019C51F324006E9D51F420A2
:10297000016E00C0E6FFE66E270EDB500A0DF3CFB6
:1029800002F0F4CF03F0600E0226000E032202C014
:10299000E6FF03C0E6FF0CEC71F0046E060EE15E8C
:1029A0000450AFD1DF6A100EDF5C71E2DF500A0D18
:1029B000F3CFE9FFF4CFEAFF600EE926000EEA222A
:1029C000080EE926000EEA22EF50800B4FE0DF50A0
:1029D0000A0DF3CFE9FFF4CFEAFF600EE926000EFF
:1029E000EA22080EE926000EEA22EF50200B3EE014
:1029F00001011C51DF5C3AE0176B1751172BEA6A93
:102A0000D50FE96E030EEA22030EEF6E4D6B4D8B70
:102A10004D814D934D8FDF500A0DF3CFE9FFF4CF79
:102A2000EAFF600EE926000EEA22040EE926000EF7
:102A3000EA22E9CF4EF1EACF4FF117C1E6FFD50EFA
:102A4000E66E030EE66E4DC1E6FFE9CFE6FFEACF84
:102A5000E6FF50EC51F0006E060EE15E0050640E91
:102A6000E66EE66A7FEC70F0E552E552DF500A0D43
:102A7000F3CFE9FFF4CFEAFF600EE926000EEA2269
:102A8000080EE926000EEA22EF6ADF2A8CD7010140
:102A90000B0E176FE850172BEA6AD50FE96E030E7D
:102AA000EA22EF6A1751172BEA6AD50FE96E030E77
:102AB000EA22A00EEF6E1751172BEA6AD50FE96EC6
:102AC000030EEA22010EEF6EDF6A040EDF5C29E2DC
:102AD000270EDB500A0DF3CFE9FFF4CFEAFF600EBB
:102AE000E926000EEA22040EE926000EEA22E9CFCA
:102AF00000F0EACF01F0DF500F01E924E96E000E8B
:102B0000EA20EA6EEF50E66E01011751172BEA6AD0
:102B1000D50FE96E030EEA22E552E750EF6EDF2A89
:102B2000D4D7216B226BE66AE66A210EE66E010EAF
:102B3000E66E2BEC2FF0E552E552E552E55201012D
:102B40001C69186919691A691B691A0EE66E010E6B
:102B5000E66E180EE66E010EE66E24EC50F0E552BD
:102B6000E552E552E55201012893DF6A100EDF5C61
:102B700028E2DF50EA6A660FE96E0E0EEA22EF687D
:102B8000270EDB6A020EF36E270EDBCFF4FFF35045
:102B9000F45C15E2016ADF34FE0B0136006E760E3E
:102BA00000260E0E0122270EDB500F010024E96ED5
:102BB000000E0120EA6EEF6A270EDB2AE3D7DF2A38
:102BC000D5D7DF6A020EDF5C09E2DF50EA6A540FF4
:102BD000E96E0E0EEA22EF6ADF2AF4D7010EE66EE6
:102BE000E66AA2CEE6FFA3CEE6FF1C0EE66E010E5D
:102BF000E66E0CEC71F0006E060EE15E0050020E07
:102C0000E66EE66AA0CEE6FFA1CEE6FF180EE66EFF
:102C1000010EE66E0CEC71F0006E060EE15E0050E7
:102C2000020EE66EE66A96CEE6FF97CEE6FF1A0E35
:102C3000E66E010EE66E0CEC71F0006E060EE15EC3
:102C40000050100EE66EE66AA8CEE6FFA9CEE6FFBB
:102C5000660EE66E0E0EE66E0CEC71F0006E060E61
:102C6000E15E0050020EE66EE66AA4CEE6FFA5CE57
:102C7000E6FF540EE66E0E0EE66E0CEC71F0006E82
:102C8000060EE15E0050200EE66EE66AA6CEE6FF76
:102C9000A7CEE6FF760EE66E0E0EE66E0CEC71F039
:102CA000006E060EE15E0050A00EE66EE66A9CCE57
:102CB000E6FF9DCEE6FF600EE66E000EE66E0CECC3
:102CC00071F0006E060EE15E00501BD004017651DB
:102CD000020817E3010128A314D0010EEA6A532564
:102CE000E96E5451EA22EF500401755D0AE10101D9
:102CF000305107E0320EE66E42EC00F0E55279EC1E
:102D000025F0010128B502D053EC53F0CBEC74F060
:102D1000010E20C0DBFF020E21C0DBFF030E22C02C
:102D2000DBFF040E23C0DBFFDF6A100EDF5C54E222
:102D3000DF50080DF3CFE9FFF4CFEAFF580EE92684
:102D4000010EEA22030EE926000EEA22EF500008E7
:102D500041E2DF50080DF3CFE9FFF4CFEAFF580E50
:102D6000E926010EEA22040EE926000EEA22EECF41
:102D700004F0EECF05F0EECF06F0EFCF07F0D9501C
:102D8000010FE96EDACFEAFF00010450EE5C006E3D
:102D90000550EE58016E0650EE58026E0750EE5880
:102DA000036ED880240E0054F40E0154000E025419
:102DB000000E03540FE2DF50080DF3CFE9FFF4CF0C
:102DC000EAFF580EE926010EEA22030EE926000E5C
:102DD000EA22EF6ADF2AA9D7D950010FE96EDACFCC
:102DE000EAFF01012C51EE5C006E2D51EE58016E90
:102DF0002E51EE58026E2F51EE58036E050E00C094
:102E0000DBFF060E01C0DBFF070E02C0DBFF080E72
:102E100003C0DBFF2B510E0BE842000853E2D950F0
:102E2000050FE96EDACFEAFFD880240EEE54F40ED7
:102E3000EE54000EEE54000EEE5401E3B8D12B0E0A
:102E4000E96E010EEA6EEF500E0BE842E806F36EF3
:102E5000E850070BF36EF46EF346F10EEF14F31027
:102E6000EF6E0B0E176FE850172BEA6AD50FE96E5D
:102E7000030EEA22EF6A1751172BEA6AD50FE96EA3
:102E8000030EEA22A30EEF6EDF6A100EDF5C14E27F
:102E9000DF50EA6A660FE96E0E0EEA22EF50E66E28
:102EA0001751172BEA6AD50FE96E030EEA22E55295
:102EB000E750EF6EDF2AE9D7E66A020EE66EA8EC6D
:102EC0002DF0ADD02B51700BE842E842E842E842C9
:102ED000000873E2D950050FE96EDACFEAFFD88017
:102EE000240EEE54F40EEE54000EEE54000EEE548A
:102EF00001E35DD12B0EE96E010EEA6EEF50700B0F
:102F0000E842E842E842E842E806F36EE850070B80
:102F1000F36EF46EF346F346F346F3468F0EEF146A
:102F2000F310EF6E0B0E176FE850172BEA6AD50FF0
:102F3000E96E030EEA22EF6A1751172BEA6AD50FE2
:102F4000E96E030EEA22A40EEF6E1751172BEA6A00
:102F5000D50FE96E030EEA2219C1EFFF1751172BA7
:102F6000EA6AD50FE96E030EEA2219C1EFFFDF6AA4
:102F7000020EDF5C14E2DF50EA6A540FE96E0E0EB7
:102F8000EA22EF50E66E1751172BEA6AD50FE96E69
:102F9000030EEA22E552E750EF6EDF2AE9D704017B
:102FA000010E796FE66A020EE66EA8EC2DF0E5528E
:102FB000E5520401110E796F34D0FF0E0E01665DEB
:102FC0003DE1010130053AE12851020B37E0D950CB
:102FD000050FE96EDACFEAFFD880240EEE54F40E26
:102FE000EE54000EEE54000EEE5401E3E0D00B0E52
:102FF000176FE850172BEA6AD50FE96E030EEA2225
:10300000EF6A1751172BEA6AD50FE96E030EEA2211
:10301000A20EEF6EE66A1CC1E6FFF6EC2DF0E5525B
:10302000E552010EDBCF2CF1020EDBCF2DF1030EAA
:10303000DBCF2EF1040EDBCF2FF1B9D001012AA195
:1030400059D0D950050FE96EDACFEAFFD880480E83
:10305000EE54E80EEE54010EEE54000EEE5401E371
:10306000A6D02A91020E305D3AE01951EA6A660F45
:10307000E96E0E0EEA22EFCF00F01C510A0DF3CFDD
:10308000E9FFF4CFEAFF600EE926000EEA22020E05
:10309000E926000EEA22010EE926000EEA22EF5090
:1030A000005C1DE0216B1951EA6A660FE96E0E0E95
:1030B000EA22EFCF22F12BEC25F0DF6E100EDF5C61
:1030C00003E2DFCF1CF10BD00101BB0E296F1AC147
:1030D00023F11BC124F169EC26F001011C6F100ED5
:1030E000E66EE66AA8CEE6FFA9CEE6FF660EE66EBD
:1030F0000E0E56D02AA31BD0D950050FE96EDACF99
:10310000EAFFD880480EEE54E80EEE54010EEE545D
:10311000000EEE544CE22A93020EE66EE66AA4CE4E
:10312000E6FFA5CEE6FF540EE66E0E0E39D02AA5B8
:103130001BD0D950050FE96EDACFEAFFD880480ED0
:10314000EE54E80EEE54010EEE54000EEE542FE253
:103150002A95200EE66EE66AA6CEE6FFA7CEE6FF2B
:10316000760EE66E0E0E1CD02AA721D0D950050F80
:10317000E96EDACFEAFFD880480EEE54E80EEE543E
:10318000010EEE54000EEE5412E22A97A00EE66EE7
:10319000E66A9CCEE6FF9DCEE6FF600EE66E000E70
:1031A000E66E0CEC71F0006E060EE15E005001015F
:1031B0002BA14BD0D950010FE96EDACFEAFF0E01F7
:1031C0000051EE5C006E0151EE58016E0251EE5856
:1031D000026E0351EE58036E07CE04F0056A066ACC
:1031E000076A3E0E256E266A276A286A07CE20F0F7
:1031F00005C021F006C022F007C023F08EEC77F066
:103200001CC004F01DC005F01EC006F01FC007F072
:1032100000501C5C01501D5802501E5803501F588E
:1032200014E201012B9108CEE6FF090EE66E0E0EA8
:10323000E66E04CEE6FF05CEE6FF06CEE6FF50ECD6
:1032400051F0006E060EE15E0050010131A327D05F
:10325000D950010FE96EDACFEAFF3651EE5C006E0D
:103260003751EE58016E3851EE58026E3951EE5812
:10327000036ED880480E0054E80E0154010E02542B
:10328000000E035449E23151F80BE842E842E842AB
:10329000E66ED8EC29F0E5520101316B3DD031A149
:1032A0003BD0D950010FE96EDACFEAFF3651EE5C20
:1032B000006E3751EE58016E3851EE58026E39519A
:1032C000EE58036ED880480E0054E80E0154010EEB
:1032D0000254000E035420E22B0E75C4DBFFD9CF3D
:1032E000E6FFDACFE6FFE66A0A0EE66E32C1E6FFD7
:1032F00033C1E6FF34C1E6FF35C1E6FFB9EC32F079
:10330000006E080EE15E00502B0EDBCFE6FFD8EC1E
:1033100029F0E552010131913AA3ACD03AA17DD018
:10332000EF0EE66EBF0EE66EE2EC71F0E552E5528E
:1033300001010B0E176FE850172BEA6AD50FE96EE3
:10334000030EEA22EF6A1751172BEA6AD50FE96ECE
:10335000030EEA22110EEF6E2C0EDB6A040EF36EE2
:103360002C0EDBCFF4FFF350F45C16E22C0EDB5096
:10337000EA6A3E0FE96E010EEA22EF50E66E17513F
:10338000172BEA6AD50FE96E030EEA22E552E750E1
:10339000EF6E2C0EDB2AE2D71751172BEA6AD50FF6
:1033A000E96E030EEA223CC1EFFF1751172BEA6AC0
:1033B000D50FE96E030EEA223DC1EFFF2C0EDB6A4A
:1033C000010EF36E2C0EDBCFF4FFF350F45C16E22B
:1033D0002C0EDB50EA6A420FE96E010EEA22EF5032
:1033E000E66E1751172BEA6AD50FE96E030EEA2233
:1033F000E552E750EF6E2C0EDB2AE2D7E66AE66A6A
:10340000430EE66E010EE66E2BEC2FF0E552E55210
:10341000E552E55201013A932DD0D950010FE96EE2
:10342000DACFEAFF4951EE5C006E4A51EE58016E68
:103430004B51EE58026E4C51EE58036E050E00C013
:10344000DBFF060E01C0DBFF070E02C0DBFF080E2C
:1034500003C0DBFFD950050FE96EDACFEAFFD88051
:10346000B40EEE54C40EEE54040EEE54000EEE54A0
:1034700001E23A932D0EE15C02E2E16AE552E16E6F
:10348000E552E7CFD9FF1200D9CFE6FFE1CFD9FF50
:10349000030EE126FE0EDB500CE0FE0EDB50EA6A66
:1034A000660FE96E0E0EEA22EFCF00F0100E005C00
:1034B00002E3000E26D0010EDF6EFE0EDB50E76E3B
:1034C000010EE7CFDBFF020EDB6A010EDB50EA6A7A
:1034D000660FE96E0E0EEA22EF5012E0010EDB508D
:1034E000EA6A660FE96E0E0EEA22010EEFCFDBFFED
:1034F000DF2A020EDBCFF3FFDB2AF3501008E5E2F0
:10350000DF50006E030EE15C02E2E16AE552E16E1B
:103510000050E552E7CFD9FF1200D9CFE6FFE1CF47
:10352000D9FF070EE126050EDB6AFE0EDB50100800
:103530000DE30E0166510CE1FE0EDB50EA6A660FE8
:10354000E96E0E0EEA22EF50100802E2FF0EB8D22A
:10355000FE0EDB50070B016E010E015204E0E8463F
:10356000FE0B0106FCE1006EFE0EDB50F80BE8429C
:10357000E842E842EA6A540FE96E0E0EEA22EF5082
:10358000001402E0FE0E9BD2DF6A100EDF5C27E221
:10359000FE0EDB50070B036E010E035204E0E846FB
:1035A000FE0B0306FCE1026E016ADF34FE0B0136FE
:1035B000006E760E00260E0E0122FE0EDB50F80B7A
:1035C000E842E842E8420F010024E96E000E0120C3
:1035D000EA6EEF50021401E028D2DF2AD6D7FE0EA1
:1035E000DB50E76E020EE7CFDBFF040EDB6A020E54
:1035F000DB5035E0020EDB50EA6A660FE96E0E0E14
:10360000EA22EF500101195D19E1020EF36E050E79
:10361000F3CFDBFFFE0EDBCFE6FF36DFE552006EB9
:10362000E66E19C1E6FF30DFE552E552E7CF00F064
:10363000005CE76E030EE7CFDBFF11D0020EDB501C
:10364000EA6A660FE96E0E0EEA22020EEFCFDBFF8A
:10365000040EDBCFF3FFDB2AF3501008C8E2050E9F
:10366000DB503FE1020E19C1DBFF040EDB6A020EE4
:10367000DB5037E0020EDB50EA6A660FE96E0E0E91
:10368000EA22EFCF00F0FE0EDB50005C19E1010EE4
:10369000F36E050EF3CFDBFF19C1E6FFF5DEE55251
:1036A000006EE66EFE0EDBCFE6FFEEDEE552E55283
:1036B000E7CF00F0005CE76E030EE7CFDBFF11D031
:1036C000020EDB50EA6A660FE96E0E0EEA22020E67
:1036D000EFCFDBFF040EDBCFF3FFDB2AF350100844
:1036E000C6E2050EDB500EE1030EF36E050EF3CFBE
:1036F000DBFFFE0EDBCFE6FFC7DEE552E76E030E13
:10370000E7CFDBFF010EDF6E030EDB50DF5C01E372
:1037100052D1FE0EDB50E76E020EE7CFDBFF010E4B
:10372000DB6ADF50F36E010EDBCFF4FFF350F45C85
:103730000DE2020EDB50EA6A660FE96E0E0EEA2217
:10374000020EEFCFDBFF010EDB2AEBD7020EDB50C0
:10375000070B016E010E015204E0E846FE0B010664
:10376000FCE1006E020EDB50F80BE842E842E84252
:10377000EA6A540FE96E0E0EEA22EF50001402E0DE
:10378000020E9DD1060EDB6A100EF36E060EDBCF25
:10379000F4FFF350F45C4DE2060EDB50EA6A660F6C
:1037A000E96E0E0EEA22EFCF00F0100E005C3EE252
:1037B000060EDB50E76E020EE7CFDBFF010EDB6A81
:1037C000DF50F36E010EDBCFF4FFF350F45C0DE23B
:1037D000020EDB50EA6A660FE96E0E0EEA22020E56
:1037E000EFCFDBFF010EDB2AEBD7FE0EDB50F36ED3
:1037F000020EDB50F35C1AE1060EDB50070B016E84
:10380000010E015204E0E846FE0B0106FCE1006EE9
:10381000060EDB50F80BE842E842E842EA6A540F31
:10382000E96E0E0EEA22EF5000144EE1060EDB2A7E
:10383000ABD7FE0EDB50E76E020EE7CFDBFF010ECB
:10384000DB6ADF50F36E010EDBCFF4FFF350F45C64
:103850000DE2020EDB50EA6A660FE96E0E0EEA22F6
:10386000020EEFCFDBFF010EDB2AEBD7060EDB6A81
:10387000100EF36E060EDBCFF4FFF350F45C29E27A
:10388000020EDB50070B036E010E035204E0E84604
:10389000FE0B0306FCE1026E060E016ADB34FE0B32
:1038A0000136006E760E00260E0E0122020EDB504F
:1038B000F80BE842E842E8420024E96E000E0120DD
:1038C000EA6EEF50021402E0060EF9D0060EDB2A73
:1038D000CFD7060EDB6A100EF36E060EDBCFF4FFB9
:1038E000F350F45C66E2060EDB50EA6A660FE96E9E
:1038F0000E0EEA22EFCF00F0100E005C57E2060E2B
:10390000DB50E76E020EE7CFDBFF010EDB6ADF5014
:10391000F36E010EDBCFF4FFF350F45C0DE2020E08
:10392000DB50EA6A660FE96E0E0EEA22020EEFCF56
:10393000DBFF010EDB2AEBD7FE0EDB50F36E020E2F
:10394000DB50F35C33E1010EDB6A100EF36E010E07
:10395000DBCFF4FFF350F45C29E2060EDB50070BDB
:10396000036E010E035204E0E846FE0B0306FCE181
:10397000026E010E016ADB34FE0B0136006E760E1C
:1039800000260E0E0122060EDB50F80BE842E8423C
:10399000E8420024E96E000E0120EA6EEF500214A6
:1039A00002E0010E8CD0010EDB2ACFD7060EDB2AF7
:1039B00092D7DF2AA9D6050EDB50020838E1FE0EA9
:1039C000DB50DF6E040EDB6ADF50EA6A660FE96ED9
:1039D0000E0EEA22EF500101195D18E1DF50070BCE
:1039E000016E010E015204E0E846FE0B0106FCE107
:1039F000006EDF50F80BE842E842E842EA6A540FF2
:103A0000E96E0E0EEA22EF5000140FE0DF50EA6A72
:103A1000660FE96E0E0EEA22EFCFDFFF040EDBCF5A
:103A2000F3FFDB2AF3501008CFE2DF5049D0010149
:103A30001951EA6A660FE96E0E0EEA22EFCFDFFF38
:103A4000020EDFCFDBFF040EDB6ADF50EA6A660F8F
:103A5000E96E0E0EEA22EFCF00F0DF50005C2EE0A0
:103A6000FE0EDB50DF5C2AE0DF50070B016E010E1B
:103A7000015204E0E846FE0B0106FCE1006EDF5057
:103A8000F80BE842E842E842EA6A540FE96E0E0E8B
:103A9000EA22EF50001403E0020EDFCFDBFFDF501D
:103AA000EA6A660FE96E0E0EEA22EFCFDFFF040E20
:103AB000DBCFF3FFDB2AF3501008C7E2020EDB5026
:103AC000006E070EE15C02E2E16AE552E16E005031
:103AD000E552E7CFD9FF1200D9CFE6FFE1CFD9FFFA
:103AE000030EE126FC0EDB50E76E010EE7CFDBFF95
:103AF000DB507F0801E2C0D10E0166510BE1010EDF
:103B0000DB50EA6A660FE96E0E0EEA22EF501008EB
:103B100001E2B2D1DF6A100EDF5C3CE2DF50080D3B
:103B2000F3CFE9FFF4CFEAFF580EE926010EEA22AF
:103B3000030EE926000EEA22EF50000829E2DF50CA
:103B4000080DF3CFE9FFF4CFEAFF580EE926010E86
:103B5000EA22EECF00F0EFCF01F0FB0EDB500018B1
:103B600017E1FC0EDB50011813E1DF50080DF3CF15
:103B7000E9FFF4CFEAFF580EE926010EEA22020E11
:103B8000E926000EEA22EF500301DF5D01E126D1B4
:103B9000DF2AC1D7DF6A100EDF5C63E2DF50080D59
:103BA000F3CFE9FFF4CFEAFF580EE926010EEA222F
:103BB000030EE926000EEA22EF5051E1DF50080D16
:103BC000F3CFE9FFF4CFEAFF580EE926010EEA220F
:103BD000030EE926000EEA22030EEF6EDF50080DF9
:103BE000F3CFE9FFF4CFEAFF580EE926010EEA22EF
:103BF000020EE926000EEA22DFC3EFFFDF50080DB8
:103C0000F3CFE9FFF4CFEAFF580EE926010EEA22CE
:103C1000FB0EDBCFEEFFFC0EDBCFEDFFCBEC74F049
:103C200020C000F021C001F022C002F023C003F048
:103C3000DF50080DF3CFE9FFF4CFEAFF580EE92675
:103C4000010EEA22040EE926000EEA2220C0EEFF51
:103C500001C0EEFF02C0EEFF03C0EEFF02D0DF2A7C
:103C60009AD7010EDB500101195D3DE1FB0EDB50DF
:103C7000800801E201D14D6B4D8BFA0EDB504D9760
:103C8000E8B04D87FB0EDBCF21F1FC0EDBCF22F13C
:103C90002BEC25F0DF6EFF0801E1EED0DF500A0DBE
:103CA000F3CFE9FFF4CFEAFF600EE926000EEA2227
:103CB000040EE926000EEA22E9CF4EF1EACF4FF1D9
:103CC00017C1E6FFD50EE66E030EE66E4DC1E6FFA8
:103CD000E9CFE6FFEACFE6FF50EC51F0006E060EAA
:103CE000E15E0050D4D0FC0EDBCFE6FF16DCE552DF
:103CF000E76E010EE7CFDBFFDB50FF0801E1BCD030
:103D0000010EDB50EA6A560FE96E0E0EEA22EFCF83
:103D100000F0030E005C71E3010EDB50EA6A560FFF
:103D2000E96E0E0EEA22EF6A010EDB50070B016E00
:103D3000010E015204E0E846FE0B0106FCE1FF0A19
:103D4000006E010EDB50F80BE842E842E842EA6AF6
:103D5000540FE96E0E0EEA220050EF16020EDB6AD7
:103D6000F36EDBCFF4FFE850F45C16E2010E016A5B
:103D7000DB34FE0B0136006E760E00260E0E01229D
:103D8000020EDB500F010024E96E000E0120EA6EE6
:103D9000EF6A020EDB2AE4D7020EE66EE66AA4CED4
:103DA000E6FFA5CEE6FF540EE66E0E0EE66E0CECB8
:103DB00071F0006E060EE15E0050200EE66EE66ABF
:103DC000A6CEE6FFA7CEE6FF760EE66E0E0EE66EF8
:103DD0000CEC71F0006E060EE15E005001012B89C3
:103DE0002B9B2B9DCBEC74F020C02CF121C02DF12E
:103DF00022C02EF123C02FF13FD001014D6B4D8B1E
:103E0000FA0EDB504D97E8B04D87216B010EDBCFEA
:103E100022F12BEC25F0DF6EFF0826E0DF500A0DC3
:103E2000F3CFE9FFF4CFEAFF600EE926000EEA22A5
:103E3000040EE926000EEA22E9CF4EF1EACF4FF157
:103E400017C1E6FFD50EE66E030EE66E4DC1E6FF26
:103E5000E9CFE6FFEACFE6FF50EC51F0006E060E28
:103E6000E15E005000090AE1010EDB50EA6A560FDC
:103E7000E96E0E0EEA22EF2A000E09D0010EDB5089
:103E8000EA6A560FE96E0E0EEA22EF6A010E006E24
:103E9000030EE15C02E2E16AE552E16E0050E55298
:103EA000E7CFD9FF1200D9CFE6FFE1CFD9FF01015B
:103EB0004D6BFC0EDB50030BF36EFC0E4D15F31037
:103EC0004D6FE150FD0FE96EFF0EDA20EA6EEE5005
:103ED000ED1001E14D854D51040B02E0000E01D0C3
:103EE000010E4D9BE8B04D8B4D8FFD0EDBCF4EF19B
:103EF000FE0EDBCF4FF117C1E6FFD50EE66E030EC7
:103F0000E66E4DC1E6FF4EC1E6FF4FC1E6FF50EC45
:103F100051F0006E060EE15E0050E552E7CFD9FF8A
:103F20001200D9CFE6FFE1CFD9FFE652DF6A100ECB
:103F3000DF5C15E2DF500A0DF3CFE9FFF4CFEAFFB3
:103F4000600EE926000EEA22080EE926000EEA229B
:103F5000EF50800B02E1DF5003D0DF2AE8D7FF0EDD
:103F6000E552E552E7CFD9FF1200D9CFE6FFE1CF06
:103F7000D9FF020EE126FE0EDB50FF084CE1DF0EFA
:103F8000E66EBF0EE66EE2EC71F0E552E552DF6AD6
:103F9000040EDF5C0FE2030ED880DF54EA6A710F73
:103FA000E96E040EEA22EF50E66E12EC72F0E55272
:103FB000DF2AEED7D00EE66EBF0EE66EE2EC71F0B1
:103FC000E552E55219C1E6FF12EC72F0E55218C154
:103FD000E6FF12EC72F0E552C60EE66EBF0EE66E1C
:103FE000E2EC71F0E552E5521BC1E6FF12EC72F013
:103FF000E5521AC1E6FF12EC72F0E552BA0EE66E17
:10400000BF0EE66EE2EC71F0E552E55275C4E6FFD4
:1040100043EC72F0E552720EE66EBF0EE66EE2EC15
:1040200071F0E552E552FE0EDB50FF0801E0A9D128
:10403000DF6A100EDF5C01E352D3DF500A0DF3CFCD
:10404000E9FFF4CFEAFF600EE926000EEA22080E2F
:10405000E926000EEA22EF50800B01E190D1DFCF7C
:10406000E6FF12EC72F0E552200EE66EFFEC71F006
:10407000E552200EE66EFFEC71F0E552200EE66E82
:10408000FFEC71F0E552200EE66EFFEC71F0E552A8
:10409000200EE66EFFEC71F0E552DF500A0DF3CF13
:1040A000E9FFF4CFEAFF600EE926000EEA22080ECF
:1040B000E926000EEA22EF50010B02E0590E01D072
:1040C0004E0EE66EFFEC71F0E552200EE66EFFEC50
:1040D00071F0E552200EE66EFFEC71F0E552DF5014
:1040E0000A0DF3CFE9FFF4CFEAFF600EE926000ED8
:1040F000EA22080EE926000EEA22EF50020B02E047
:10410000590E01D04E0EE66EFFEC71F0E552200E16
:10411000E66EFFEC71F0E552200EE66EFFEC71F0FA
:10412000E552DF500A0DF3CFE9FFF4CFEAFF600E4E
:10413000E926000EEA22080EE926000EEA22EF50D8
:10414000080B56E0DF500A0DF3CFE9FFF4CFEAFF8A
:10415000600EE926000EEA22010EE926000EEA2290
:10416000EF50E66E12EC72F0E552DF500A0DF3CF1D
:10417000E9FFF4CFEAFF600EE926000EEA22EF50D5
:10418000E66E12EC72F0E552200EE66EFFEC71F076
:10419000E552200EE66EFFEC71F0E552DF500A0D9D
:1041A000F3CFE9FFF4CFEAFF600EE926000EEA2222
:1041B000020EE926000EEA22010EE926000EEA228E
:1041C000EF50E66E12EC72F0E552DF500A0DF3CFBD
:1041D000E9FFF4CFEAFF600EE926000EEA22020EA4
:1041E000E926000EEA22EF50E66E12EC72F031D0B2
:1041F0003F0EE66EFFEC71F0E5523F0EE66EFFEC0F
:1042000071F0E5523F0EE66EFFEC71F0E5523F0EA5
:10421000E66EFFEC71F0E552200EE66EFFEC71F0F9
:10422000E552200EE66EFFEC71F0E5523F0EE66EB1
:10423000FFEC71F0E5523F0EE66EFFEC71F0E552D7
:104240003F0EE66EFFEC71F0E5523F0EE66EFFECBE
:1042500071F0E552200EE66EFFEC71F0E552DF5092
:104260000A0DF3CFE9FFF4CFEAFF600EE926000E56
:10427000EA22080EE926000EEA22EF50040B31E094
:10428000010EDB6A040EF36E010EDBCFF4FFF35078
:10429000F45C27E2DF500A0DF3CFE9FFF4CFEAFF29
:1042A000600EE926000EEA22040EE926000EEA223C
:1042B000E9CF00F0EACF01F0010EDBCFE6FF030EFD
:1042C000E552D880E7540F01E924E96E000EEA2098
:1042D000EA6EEF50E66E12EC72F0E552010EDB2A48
:1042E000D1D7200EE66EFFEC71F0E552010EDB6ACD
:1042F000040EF36E010EDBCFF4FFF350F45C0BE21F
:104300006F0EE66EBF0EE66EE2EC71F0E552E5521E
:10431000010EDB2AEDD7010EDB6AF36EDBCFF4FF73
:10432000E850F45C22E2DF500A0DF3CFE9FFF4CF4E
:10433000EAFF600EE926000EEA22090EE926000EC9
:10434000EA22E9CF00F0EACF01F0010EDB500F01C5
:10435000E924E96E000EEA20EA6EEF50E66E12ECF8
:1043600072F0E552010EDB2AD8D70D0EE66EFFEC97
:1043700071F0E5520A0EE66EFFEC71F0E552DF2AAD
:1043800058D6FE0EDB500A0DF3CFE9FFF4CFEAFF5B
:10439000600EE926000EEA22080EE926000EEA2247
:1043A000EF50800B01E19BD1FE0EDBCFE6FF12EC5C
:1043B00072F0E552200EE66EFFEC71F0E552200E31
:1043C000E66EFFEC71F0E552200EE66EFFEC71F048
:1043D000E552200EE66EFFEC71F0E552200EE66E1F
:1043E000FFEC71F0E552FE0EDB500A0DF3CFE9FF52
:1043F000F4CFEAFF600EE926000EEA22080EE92655
:10440000000EEA22EF50010B02E0590E01D04E0ED1
:10441000E66EFFEC71F0E552200EE66EFFEC71F0F7
:10442000E552200EE66EFFEC71F0E552FE0EDB5019
:104430000A0DF3CFE9FFF4CFEAFF600EE926000E84
:10444000EA22080EE926000EEA22EF50020B02E0F3
:10445000590E01D04E0EE66EFFEC71F0E552200EC3
:10446000E66EFFEC71F0E552200EE66EFFEC71F0A7
:10447000E552FE0EDB500A0DF3CFE9FFF4CFEAFF61
:10448000600EE926000EEA22080EE926000EEA2256
:10449000EF50080B5AE0FE0EDB500A0DF3CFE9FF98
:1044A000F4CFEAFF600EE926000EEA22010EE926AB
:1044B000000EEA22EF50E66E12EC72F0E552FE0EAC
:1044C000DB500A0DF3CFE9FFF4CFEAFF600EE926D7
:1044D000000EEA22EF50E66E12EC72F0E552200E6A
:1044E000E66EFFEC71F0E552200EE66EFFEC71F027
:1044F000E552FE0EDB500A0DF3CFE9FFF4CFEAFFE1
:10450000600EE926000EEA22020EE926000EEA22DB
:10451000010EE926000EEA22EF50E66E12EC72F070
:10452000E552FE0EDB500A0DF3CFE9FFF4CFEAFFB0
:10453000600EE926000EEA22020EE926000EEA22AB
:10454000EF50E66E12EC72F031D03F0EE66EFFECEB
:1045500071F0E5523F0EE66EFFEC71F0E5523F0E52
:10456000E66EFFEC71F0E5523F0EE66EFFEC71F087
:10457000E552200EE66EFFEC71F0E552200EE66E7D
:10458000FFEC71F0E5523F0EE66EFFEC71F0E55284
:104590003F0EE66EFFEC71F0E5523F0EE66EFFEC6B
:1045A00071F0E5523F0EE66EFFEC71F0E552200E21
:1045B000E66EFFEC71F0E552FE0EDB500A0DF3CF14
:1045C000E9FFF4CFEAFF600EE926000EEA22080EAA
:1045D000E926000EEA22EF50040B32E0010EDB6AFE
:1045E000040EF36E010EDBCFF4FFF350F45C28E20F
:1045F000FE0EDB500A0DF3CFE9FFF4CFEAFF600EA9
:10460000E926000EEA22040EE926000EEA22E9CF8E
:1046100000F0EACF01F0010EDBCFE6FF030EE5521A
:10462000D880E7540F01E924E96E000EEA20EA6E13
:10463000EF50E66E12EC72F0E552010EDB2AD0D795
:10464000200EE66EFFEC71F0E552010EDB6A040EFF
:10465000F36E010EDBCFF4FFF350F45C0BE26F0E50
:10466000E66EBF0EE66EE2EC71F0E552E552010E29
:10467000DB2AEDD7010EDB6AF36EDBCFF4FFE850E7
:10468000F45C23E2FE0EDB500A0DF3CFE9FFF4CF1A
:10469000EAFF600EE926000EEA22090EE926000E66
:1046A000EA22E9CF00F0EACF01F0010EDB500F0162
:1046B000E924E96E000EEA20EA6EEF50E66E12EC95
:1046C00072F0E552010EDB2AD7D70D0EE66EFFEC35
:1046D00071F0E5520A0EE66EFFEC71F0E552020E43
:1046E000E15C02E2E16AE552E16EE552E7CFD9FF13
:1046F0001200D9CFE6FFE1CFD9FFE65201013A918E
:10470000020E305D01E044D13AB33FD0CBEC74F0FF
:1047100020C049F121C04AF122C04BF123C04CF125
:1047200001013C6B3D6BDF6A040EDF5C13E2DF507E
:10473000EA6A710FE96E040EEA22EF50E66EDF506E
:10474000EA6A3E0FE96E010EEA22E552E750EF6E8B
:10475000DF2AEAD701013A833A91DF6A010EDF5C72
:1047600001E374D1DF50EA6AAD0FE96E030EEA226D
:10477000EF50E66EDF50EA6A420FE96E010EEA2260
:10478000E552E750EF6EDF2AE9D73C513D1101E1D8
:104790005DD118513C1902E119513D1901E156D181
:1047A0000B0E176FE850172BEA6AD50FE96E030E50
:1047B000EA22EF6A1751172BEA6AD50FE96E030E4A
:1047C000EA22110EEF6EDF6A040EDF5C14E2DF50A6
:1047D000EA6A710FE96E040EEA22EF50E66E175195
:1047E000172BEA6AD50FE96E030EEA22E552E7506D
:1047F000EF6EDF2AE9D71751172BEA6AD50FE96E5A
:10480000030EEA2218C1EFFF1751172BEA6AD50FE2
:10481000E96E030EEA2219C1EFFFDF6A010EDF5CC9
:1048200014E2DF50EA6AAD0FE96E030EEA22EF50A0
:10483000E66E1751172BEA6AD50FE96E030EEA22CE
:10484000E552E750EF6EDF2AE9D7DF6A040EDF5C3E
:1048500013E2DF50EA6A3E0FE96E010EEA22EF50E2
:10486000E66EDF50EA6A1D0FE96E010EEA22E5529C
:10487000E750EF6EDF2AEAD73CC121F13DC122F1BA
:10488000EAD801013B6FFF0E3B5D11E03B510A0D81
:10489000F3CFE9FFF4CFEAFF600EE926000EEA222B
:1048A000080EE926000EEA22EFCF29F104D08C0E83
:1048B000296F21AF29811AC123F11BC124F109DA23
:1048C00001013B6FFF0E3B5D2BE2DF6A010EDF5CF7
:1048D00027E2DF50EA6A420FE96E010EEA22EF504A
:1048E000E66E01013B510A0DF3CFE9FFF4CFEAFF79
:1048F000600EE926000EEA22090EE926000EEA22E1
:10490000E9CF00F0EACF01F0DF500F01E924E96EB2
:10491000000EEA20EA6EE552E750EF6EDF2AD6D7A6
:10492000E66AE66A3C0EE66E010EE66E2BEC2FF0B0
:10493000E552E552E552E55201013A933A81FF0E04
:104940003B5D01E383D00A0EE66EE66A3B510A0D39
:104950000E019C51F324006E9D51F420016E00C0A5
:10496000E6FFE66E01013B510A0DF3CF02F0F4CFF2
:1049700003F0600E0226000E032202C0E6FF03C011
:10498000E6FF0CEC71F0046E060EE15E04505ED0A2
:10499000CBEC74F020C049F121C04AF122C04BF1A8
:1049A00023C04CF10101216B226B0B0E176FE850F5
:1049B000172BEA6AD50FE96E030EEA22EF6A175148
:1049C000172BEA6AD50FE96E030EEA22100EEF6E7E
:1049D000DF6A040EDF5C14E2DF50EA6A710FE96EF1
:1049E000040EEA22EF50E66E1751172BEA6AD50F34
:1049F000E96E030EEA22E552E750EF6EDF2AE9D7AF
:104A0000DF6A010EDF5C14E2DF50EA6AAD0FE96E87
:104A1000030EEA22EF50E66E1751172BEA6AD50F04
:104A2000E96E030EEA22E552E750EF6EDF2AE9D77E
:104A3000E66AE66A210EE66E010EE66E2BEC2FF0BA
:104A4000E552E552E552E55201013A83E552E5525D
:104A5000E7CFD9FF1200D9CFE6FFE1CFD9FFE65269
:104A6000DF6A100EDF5C3FE2DF500A0DF3CFE9FF93
:104A7000F4CFEAFF600EE926000EEA22080EE926CE
:104A8000000EEA22EF50800B2CE0DF500A0DF3CF2E
:104A9000E9FFF4CFEAFF600EE926000EEA22080ED5
:104AA000E926000EEA22EF50080B1BE0DF500A0D4A
:104AB000F3CFE9FFF4CFEAFF600EE926000EEA2209
:104AC000020EE926000EEA22EECF00F0EFCF01F051
:104AD00001012151001805E12251011802E1DF50C6
:104AE00003D0DF2ABED7FF0EE552E552E7CFD9FF4C
:104AF0001200D9CFE6FFE1CFD9FFE6520101176BD3
:104B00001751172BEA6AD50FE96E030EEA221AC174
:104B1000EFFF1751172BEA6AD50FE96E030EEA2251
:104B20001BC1EFFF1751172BEA6AD50FE96E030E71
:104B3000EA2218C1EFFF1751172BEA6AD50FE96E69
:104B4000030EEA2219C1EFFF1751172BEA6AD50F9E
:104B5000E96E030EEA22EF681751172BEA6AD50FA8
:104B6000E96E030EEA2200C1EFFF1751172BEA6A24
:104B7000D50FE96E030EEA22EF6A1751172BEA6A86
:104B8000D50FE96E030EEA22EF6A1751172BEA6A76
:104B9000D50FE96E030EEA225D0EEF6E1751172B4B
:104BA000EA6AD50FE96E030EEA22410EEF6EDF6A64
:104BB000010EDF5C14E2DF50EA6AAD0FE96E030E0E
:104BC000EA22EF50E66E1751172BEA6AD50FE96E0D
:104BD000030EEA22E552E750EF6EDF2AE9D7030E13
:104BE000E66E000EE66EE66A53EC1FF0E552E55203
:104BF000E552E552E552E7CFD9FF1200D9CFE6FFE3
:104C0000E1CFD9FF020EE126DF6A100EDF5C54E22D
:104C1000DF500A0DF3CFE9FFF4CFEAFF600EE9267B
:104C2000000EEA22080EE926000EEA22EF50800B61
:104C300041E0DF500A0DF3CFE9FFF4CFEAFF600E49
:104C4000E926000EEA22080EE926000EEA22EF50BD
:104C5000040B30E0010EDB6A040EF36E010EDBCFB5
:104C6000F4FFF350F45C24E2DF500A0DF3CFE9FFC8
:104C7000F4CFEAFF600EE926000EEA22040EE926D0
:104C8000000EEA22010EDB50E924E96E000EEA2054
:104C9000EA6EEFCF00F0010EDB50EA6A1D0FE96EFD
:104CA000010EEA22EF50005C05E1010EDB2AD4D7A9
:104CB000DF5003D0DF2AA9D7FF0E006E020EE15CA1
:104CC00002E2E16AE552E16E0050E552E7CFD9FF1A
:104CD0001200D9CFE6FFE1CFD9FF020EE126DF684F
:104CE000010129A502D08ADF03D029A702D0B3DEB3
:104CF000DF6EFF0EDF5C03E191EC1FF0DF6EFF0E55
:104D0000DF5C65E0DF500A0DF3CFE9FFF4CFEAFF87
:104D1000600EE926000EEA22080EE926000EEA22BD
:104D200029C1EFFF010129A52FD0010EDB6A040E76
:104D3000F36E010EDBCFF4FFF350F45C25E2010EBD
:104D4000DB50EA6A1D0FE96E010EEA22EF50E66EB3
:104D5000DF500A0DF3CFE9FFF4CFEAFF600EE9263A
:104D6000000EEA22040EE926000EEA22010EDB50B4
:104D70000F01E924E96E000EEA20EA6EE552E750E1
:104D8000EF6E010EDB2AD3D7010129A712D0DF5025
:104D90000A0DF3CFE9FFF4CFEAFF600EE926000E1B
:104DA000EA22020EE926000EEA2221C1EEFF22C10C
:104DB000EDFFDF500A0DF3CFE9FFF4CFEAFF600EFD
:104DC000E926000EEA2223C1EEFF24C1EDFFDF50E9
:104DD000006E020EE15C02E2E16AE552E16E005013
:104DE000E552E7CFD9FF1200D9CFE6FFE1CFD9FFD7
:104DF000E652DF6A040EDF5C21E2DF50E76EFD0E53
:104E0000DBCFE9FFFE0EDBCFEAFFE750E926000E1D
:104E1000EA22EFCF00F0DF50E76EFB0EDBCFE9FFB9
:104E2000FC0EDBCFEAFFE750E926000EEA22EF5046
:104E3000005C02E0000E03D0DF2ADCD7010EE55251
:104E4000E552E7CFD9FF1200D9CFE6FFE1CFD9FF76
:104E5000050EE12684EC73F047EC71F001080101C6
:104E600018691969340E1A6F120E1B6F030EDB6A74
:104E7000100EF36E030EDBCFF4FFF350F45C13E27D
:104E8000030EDB500A0DF3CFE9FFF4CFEAFF600E0B
:104E9000E926000EEA22080EE926000EEA22EF6A51
:104EA000030EDB2AE5D7030EDB6A020EF36E030E58
:104EB000DBCFF4FFF350F45C0BE2030EDB50EA6A45
:104EC000540FE96E0E0EEA22EF6A030EDB2AEDD7CD
:104ED000030EDB6A100EF36E030EDBCFF4FFF3500C
:104EE000F45C0BE2030EDB50EA6A560FE96E0E0E1D
:104EF000EA22EF6A030EDB2AEDD70101306B2B6B40
:104F0000286B2A6B3A6B006BC1EC74F00101176BD4
:104F1000FE0EDB5001E119D1010EE66EE66A98CE75
:104F2000E6FF99CEE6FF750EE66E040EE66E06EC21
:104F300071F0006E060EE15E0050200E0401755DFA
:104F400016E2020EE66EE66AA0CEE6FFA1CEE6FF0E
:104F5000180EE66E010EE66E06EC71F0006E060E9F
:104F6000E15E00500101181D04E1191D02E1000E6F
:104F700013D2020EE66EE66A96CEE6FF97CEE6FF05
:104F80001A0EE66E010EE66E06EC71F0006E060E6D
:104F9000E15E0050010EE66EE66A9ACEE6FF9BCE19
:104FA000E6FF760EE66E040EE66E06EC71F0006E1D
:104FB000060EE15E0050040176510101030BF36E11
:104FC000F346F346F346F346CF0E0015F310006F99
:104FD000A00EE66EE66A9CCEE6FF9DCEE6FF600E72
:104FE000E66E000EE66E06EC71F0006E060EE15EF7
:104FF0000050020EE66EE66AA0CEE6FFA1CEE6FF06
:10500000180EE66E010EE66E06EC71F0006E060EEE
:10501000E15E0050010EE66EE66AA2CEE6FFA3CE88
:10502000E6FF1C0EE66E010EE66E06EC71F0006EF9
:10503000060EE15E0050020EE66EE66AA4CEE6FFC2
:10504000A5CEE6FF540EE66E0E0EE66E06EC71F08F
:10505000006E060EE15E0050200EE66EE66AA6CEF9
:10506000E6FFA7CEE6FF760EE66E0E0EE66E06ECC7
:1050700071F0006E060EE15E0050100EE66EE66AFC
:10508000A8CEE6FFA9CEE6FF660EE66E0E0EE66E31
:1050900006EC71F0006E060EE15E0050010EE66E49
:1050A000E66AAACEE6FFABCEE6FF300EE66E010E54
:1050B000E66E06EC71F0006E060EE15E0050660EC4
:1050C000E66EBF0EE66EE2EC71F0E552E55275C495
:1050D000E6FF43EC72F0E5525E0EE66EBF0EE66E42
:1050E000E2EC71F0E552E5521BC1E6FF12EC72F002
:1050F000E5521AC1E6FF12EC72F0E552530EE66E6D
:10510000BF0EE66EE2EC71F0E552E55219C1E6FF22
:1051100012EC72F0E55218C1E6FF12EC72F0E552A3
:1051200075C4E6FF45D9E5521A0EE66E010EE66E2D
:10513000180EE66E010EE66E24EC50F0E552E552D4
:10514000E552E55201012883C0D04E0EE66EBF0E37
:10515000E66EE2EC71F0E552E552020EE66EE66AAA
:1051600096CEE6FF97CEE6FF1A0EE66E010EE66ECD
:105170000CEC71F0006E060EE15E0050010EE66E62
:10518000E66A98CEE6FF99CEE6FF750EE66E040E4F
:10519000E66E0CEC71F0006E060EE15E0050010E42
:1051A000E66EE66A9ACEE6FF9BCEE6FF760EE66EE8
:1051B000040EE66E0CEC71F0006E060EE15E00501F
:1051C000A00EE66EE66A9CCEE6FF9DCEE6FF600E80
:1051D000E66E000EE66E0CEC71F0006E060EE15EFF
:1051E0000050020EE66EE66AA0CEE6FFA1CEE6FF14
:1051F000180EE66E010EE66E0CEC71F0006E060EF7
:10520000E15E0050010EE66EE66AA2CEE6FFA3CE96
:10521000E6FF1C0EE66E010EE66E0CEC71F0006E01
:10522000060EE15E0050030EDB6A020EF36E030E03
:10523000DBCFF4FFF350F45C0BE2030EDB50EA6AC1
:10524000540FE96E0E0EEA22EF6A030EDB2AEDD749
:10525000030EDB6A100EF36E030EDBCFF4FFF35088
:10526000F45C2BE2040EDB6A020EF36E040EDBCF5D
:10527000F4FFF350F45C16E2030E016ADB34FE0B1C
:105280000136006E760E00260E0E0122040EDB5053
:105290000F010024E96E000E0120EA6EEF6A040E91
:1052A000DB2AE2D7030EDB50EA6A660FE96E0E0EC8
:1052B000EA22EF68030EDB2ACDD74B0EE66EBF0E57
:1052C000E66EE2EC71F0E552E552DF6ADF96DF98B8
:1052D000DF8ADF9CDF82FE0EDB50006ED9CFE9FF54
:1052E000DACFEAFFE850010BF36EF346F346FB0E0C
:1052F000EF14F310EF6ED950010FE96EDACFEAFF29
:10530000710EEE6E040EED6EDECFE6FFDECFE6FF31
:10531000DDCFE6FFDD52ABEC50F0E552E552E55251
:105320001A0EE66E010EE66E180EE66E010EE66EC1
:1053300024EC50F0E552E552E552E55275C4E6FF23
:1053400037D8E55201010081040176510101030BB8
:10535000F36EF346F346F346F346CF0E0015F31013
:10536000006F008D3051030BF36EF346F90E0015FC
:10537000F310006F2A6BCBEC74F020C02CF121C02D
:105380002DF122C02EF123C02FF10101316BD6CFB8
:1053900027F1F094F08A010E006E050EE15C02E246
:1053A000E16AE552E16E0050E552E7CFD9FF120005
:1053B000D9CFE6FFE1CFD9FFE66AFE0EDBCFE6FFED
:1053C0002BEC50F0E552E552000916E0FE0EDBCF63
:1053D00075F4010EE66EE66A98CEE6FF99CEE6FF1A
:1053E000750EE66E040EE66E0CEC71F0006E060EA5
:1053F000E15E0050010E01D0000EE552E7CFD9FF6B
:105400001200D9CFE6FFE1CFD9FFFE0EDB50030833
:1054100021E3FE0EDBCF76F4040176510101030B8C
:10542000F36EF346F346F346F346CF0E0015F31042
:10543000006F010EE66EE66A9ACEE6FF9BCEE6FFAF
:10544000760EE66E040EE66E0CEC71F0006E060E43
:10545000E15E0050E552E7CFD9FF1200D9CFE6FF59
:10546000E1CFD9FF0E0EE126010EF36EDB6E020EC8
:10547000DB6A030EDB6A040EDB6A050E75C4DBFF14
:10548000DF6A010EDF5C0DE2DF500B0DF3CFE9FFA9
:10549000F4CFEAFF0C0EE926010EEA22EF68DF2ABC
:1054A000F0D701010B6B2881DF6A200EDF5C01E37E
:1054B000B0D0010EDBCF00F0020EDBCF01F0030E07
:1054C000DBCF02F0040EDBCF03F0DF501F0B07E051
:1054D000D8900036013602360336E806F9E1D95095
:1054E000FA0FE96EFF0EDA20EA6EEE500016EE506B
:1054F0000116EE500216EE50031600500110021075
:10550000031001E184D03B0EE66EBF0EE66EE2ECC6
:1055100071F0E552E552DFCFE6FF43EC72F0E55261
:10552000DFCFE6FF45DFE5520101176B1751172B5F
:10553000EA6AD50FE96E030EEA22070EEF6E1751E5
:10554000172BEA6AD50FE96E030EEA2275C4EFFF46
:10555000010EE66E000EE66EE66A53EC1FF0E552B1
:10556000E552E552CBEC74F0060E20C0DBFF070ECF
:1055700021C0DBFF080E22C0DBFF090E23C0DBFFCA
:10558000CBDA000901E0D0DACBEC74F00A0E20C0CF
:10559000DBFF0B0E21C0DBFF0C0E22C0DBFF0D0E6C
:1055A00023C0DBFF0A0EDBCF04F00B0EDBCF05F0D0
:1055B0000C0EDBCF06F00D0EDBCF07F0D950060F37
:1055C000E96EDACFEAFFEE50045C006EEE5005584B
:1055D000016EEE500658026EEE500758036EFE0E36
:1055E000DB50040DF3CFF6FFF4CFF7FF920EF62653
:1055F000F10EF72200500900F55C01500900F55842
:1056000002500900F55803500900F558B9E2DF2AA5
:105610004CD7050EDBCFE6FFCBDEE552010128912A
:105620000B51006E0E0EE15C02E2E16AE552E16EA2
:105630000050E552E7CFD9FF1200D9CFE6FFE1CF06
:10564000D9FF0A0EE126030EDF6EFD0EDB040EE12C
:1056500079EC23F001013AA305D05EDA0009FAE003
:1056600063DAF8D73AA147D23B514AD2FD0EDB505C
:1056700001E045D2FE0EDB50FF0826E1010E006E70
:10568000016A026A036A040175511F0B07E0D89092
:105690000036013602360336E806F9E100C0E6FFBF
:1056A00001C0E6FF02C0E6FF03C0E6FF0A0EE66E99
:1056B000D5DE046E050EE15E0450000903E1DF064D
:1056C000DDE119D2FE0EDB6AFE0EDB500B0DF3CFCF
:1056D000E9FFF4CFEAFF0C0EE926010EEA22050EDF
:1056E000E926000EEA22EECF23F1EDCF24F1010EE0
:1056F000DB6A040EF36E010EDBCFF4FFF350F45CB3
:1057000027E2FE0EDB500B0DF3CFE9FFF4CFEAFFEB
:105710000C0EE926010EEA22EE52E9CF00F0EACFA4
:1057200001F0010EDB500F01E924E96E000EEA20C2
:10573000EA6EEF50E66E010EDB50EA6A1D0FE96E6D
:10574000010EEA22E552E750EF6E010EDB2AD1D7B7
:10575000FEEC25F001011C6FFF0E1C5D07E191ECD2
:105760001FF001011C6FFF0801E1C5D11C510A0D9A
:10577000F3CFE9FFF4CFEAFF600EE926000EEA223C
:10578000080EE926000EEA22EF6AFE0EDB500B0D32
:10579000F3CFE9FFF4CFEAFF0C0EE926010EEA226F
:1057A000050EE926000EEA22EECF00F0EFCF01F061
:1057B0001C510A0DF3CFE9FFF4CFEAFF600EE92692
:1057C000000EEA2200C0EEFF01C0EDFF010EDB6A11
:1057D000040EF36E010EDBCFF4FFF350F45C38E2FD
:1057E000FE0EDB500B0DF3CFE9FFF4CFEAFF0C0EFA
:1057F000E926010EEA22EE52E9CF02F0EACF03F0E9
:10580000010EDB50E924E96E000EEA20EA6EEF504B
:10581000E66E1C510A0DF3CFE9FFF4CFEAFF600EEC
:10582000E926000EEA22040EE926000EEA22E9CF5C
:1058300000F0EACF01F0010EDB50E924E96E000E22
:10584000EA20EA6EE552E750EF6E010EDB2AC0D780
:105850001C510A0DF3CFE9FFF4CFEAFF600EE926F1
:10586000000EEA22080EE926000EEA22EF84010E5D
:10587000DB6ADBCFF4FFE850F45C3BE2FE0EDB506A
:105880000B0DF3CFE9FFF4CFEAFF0C0EE926010E72
:10589000EA220A0EE926000EEA22E9CF02F0EACF58
:1058A00003F0010EDB50E924E96E000EEA20EA6EF7
:1058B000EF50E66E1C510A0DF3CFE9FFF4CFEAFF7B
:1058C000600EE926000EEA22090EE926000EEA2201
:1058D000E9CF00F0EACF01F0010EDB50E924E96ED8
:1058E000000EEA20EA6EE552E750EF6E010EDB2A69
:1058F000C0D71C510A0DF3CFE9FFF4CFEAFF600EC9
:10590000E926000EEA22080EE926000EEA22EF82BE
:105910001C510A0DF3CFE9FFF4CFEAFF600EE92630
:10592000000EEA22080EE926000EEA22EF8A1C5138
:105930000A0DF3CFE9FFF4CFEAFF600EE926000E6F
:10594000EA22080EE926000EEA22EF80FE0EDB5066
:105950000B0DF3CFE9FFF4CFEAFF0C0EE926010EA1
:10596000EA22EF50E66E24DDE55201011C510A0DDA
:10597000F3CFE9FFF4CFEAFF600EE926000EEA223A
:10598000EECF1AF1EDCF1BF1216922691A0EE66EF6
:10599000010EE66E210EE66E010EE66E24EC50F06E
:1059A000E552E552E552E5520101176B1751172BED
:1059B000EA6AD50FE96E030EEA22010EEF6E175167
:1059C000172BEA6AD50FE96E030EEA2200C1EFFF3A
:1059D000010EDB6ADBCFF4FFE850F45C16E2010E47
:1059E000DB50EA6AAD0FE96E030EEA22EF50E66E75
:1059F0001751172BEA6AD50FE96E030EEA22E5521A
:105A0000E750EF6E010EDB2AE5D7010EE66E1C5162
:105A10000A0DF3CFE9FFF4CFEAFF600EE926000E8E
:105A2000EA22040EE926000EEA22E9CF00F0EACFCE
:105A300001F0E9CFE6FFEACFE6FF53EC1FF0E552B5
:105A4000E552E552CBEC74F0020E20C0DBFF030EF2
:105A500021C0DBFF040E22C0DBFF050E23C0DBFFED
:105A600001011C510A0DF3CFE9FFF4CFEAFF600EEC
:105A7000E926000EEA22080EE926000EEA22EF507F
:105A8000100B3BE149D8000901E04ED8CBEC74F093
:105A9000060E20C0DBFF070E21C0DBFF080E22C070
:105AA000DBFF090E23C0DBFF060EDBCF04F0070E81
:105AB000DBCF05F0080EDBCF06F0090EDBCF07F0D9
